{
  "_format": "hh-sol-artifact-1",
  "contractName": "Flower",
  "sourceName": "contracts/Flower.sol",
  "abi": [
    {
      "inputs": [
        {
          "internalType": "uint256",
          "name": "_interval",
          "type": "uint256"
        }
      ],
      "stateMutability": "nonpayable",
      "type": "constructor"
    },
    {
      "anonymous": false,
      "inputs": [
        {
          "indexed": true,
          "internalType": "address",
          "name": "owner",
          "type": "address"
        },
        {
          "indexed": true,
          "internalType": "address",
          "name": "approved",
          "type": "address"
        },
        {
          "indexed": true,
          "internalType": "uint256",
          "name": "tokenId",
          "type": "uint256"
        }
      ],
      "name": "Approval",
      "type": "event"
    },
    {
      "anonymous": false,
      "inputs": [
        {
          "indexed": true,
          "internalType": "address",
          "name": "owner",
          "type": "address"
        },
        {
          "indexed": true,
          "internalType": "address",
          "name": "operator",
          "type": "address"
        },
        {
          "indexed": false,
          "internalType": "bool",
          "name": "approved",
          "type": "bool"
        }
      ],
      "name": "ApprovalForAll",
      "type": "event"
    },
    {
      "anonymous": false,
      "inputs": [
        {
          "indexed": true,
          "internalType": "address",
          "name": "from",
          "type": "address"
        },
        {
          "indexed": true,
          "internalType": "address",
          "name": "to",
          "type": "address"
        },
        {
          "indexed": true,
          "internalType": "uint256",
          "name": "tokenId",
          "type": "uint256"
        }
      ],
      "name": "Transfer",
      "type": "event"
    },
    {
      "inputs": [
        {
          "internalType": "address",
          "name": "to",
          "type": "address"
        },
        {
          "internalType": "uint256",
          "name": "tokenId",
          "type": "uint256"
        }
      ],
      "name": "approve",
      "outputs": [],
      "stateMutability": "nonpayable",
      "type": "function"
    },
    {
      "inputs": [
        {
          "internalType": "address",
          "name": "owner",
          "type": "address"
        }
      ],
      "name": "balanceOf",
      "outputs": [
        {
          "internalType": "uint256",
          "name": "",
          "type": "uint256"
        }
      ],
      "stateMutability": "view",
      "type": "function"
    },
    {
      "inputs": [
        {
          "internalType": "bytes",
          "name": "",
          "type": "bytes"
        }
      ],
      "name": "checkUpkeep",
      "outputs": [
        {
          "internalType": "bool",
          "name": "upkeepNeeded",
          "type": "bool"
        },
        {
          "internalType": "bytes",
          "name": "",
          "type": "bytes"
        }
      ],
      "stateMutability": "view",
      "type": "function"
    },
    {
      "inputs": [
        {
          "internalType": "string",
          "name": "a",
          "type": "string"
        },
        {
          "internalType": "string",
          "name": "b",
          "type": "string"
        }
      ],
      "name": "compareStrings",
      "outputs": [
        {
          "internalType": "bool",
          "name": "",
          "type": "bool"
        }
      ],
      "stateMutability": "pure",
      "type": "function"
    },
    {
      "inputs": [
        {
          "internalType": "uint256",
          "name": "_tokenId",
          "type": "uint256"
        }
      ],
      "name": "flowerStage",
      "outputs": [
        {
          "internalType": "uint256",
          "name": "",
          "type": "uint256"
        }
      ],
      "stateMutability": "view",
      "type": "function"
    },
    {
      "inputs": [
        {
          "internalType": "uint256",
          "name": "tokenId",
          "type": "uint256"
        }
      ],
      "name": "getApproved",
      "outputs": [
        {
          "internalType": "address",
          "name": "",
          "type": "address"
        }
      ],
      "stateMutability": "view",
      "type": "function"
    },
    {
      "inputs": [
        {
          "internalType": "uint256",
          "name": "_tokenId",
          "type": "uint256"
        }
      ],
      "name": "growFlower",
      "outputs": [],
      "stateMutability": "nonpayable",
      "type": "function"
    },
    {
      "inputs": [
        {
          "internalType": "address",
          "name": "owner",
          "type": "address"
        },
        {
          "internalType": "address",
          "name": "operator",
          "type": "address"
        }
      ],
      "name": "isApprovedForAll",
      "outputs": [
        {
          "internalType": "bool",
          "name": "",
          "type": "bool"
        }
      ],
      "stateMutability": "view",
      "type": "function"
    },
    {
      "inputs": [],
      "name": "name",
      "outputs": [
        {
          "internalType": "string",
          "name": "",
          "type": "string"
        }
      ],
      "stateMutability": "view",
      "type": "function"
    },
    {
      "inputs": [
        {
          "internalType": "uint256",
          "name": "tokenId",
          "type": "uint256"
        }
      ],
      "name": "ownerOf",
      "outputs": [
        {
          "internalType": "address",
          "name": "",
          "type": "address"
        }
      ],
      "stateMutability": "view",
      "type": "function"
    },
    {
      "inputs": [
        {
          "internalType": "bytes",
          "name": "",
          "type": "bytes"
        }
      ],
      "name": "performUpkeep",
      "outputs": [],
      "stateMutability": "nonpayable",
      "type": "function"
    },
    {
      "inputs": [
        {
          "internalType": "address",
          "name": "to",
          "type": "address"
        }
      ],
      "name": "safeMint",
      "outputs": [],
      "stateMutability": "nonpayable",
      "type": "function"
    },
    {
      "inputs": [
        {
          "internalType": "address",
          "name": "from",
          "type": "address"
        },
        {
          "internalType": "address",
          "name": "to",
          "type": "address"
        },
        {
          "internalType": "uint256",
          "name": "tokenId",
          "type": "uint256"
        }
      ],
      "name": "safeTransferFrom",
      "outputs": [],
      "stateMutability": "nonpayable",
      "type": "function"
    },
    {
      "inputs": [
        {
          "internalType": "address",
          "name": "from",
          "type": "address"
        },
        {
          "internalType": "address",
          "name": "to",
          "type": "address"
        },
        {
          "internalType": "uint256",
          "name": "tokenId",
          "type": "uint256"
        },
        {
          "internalType": "bytes",
          "name": "data",
          "type": "bytes"
        }
      ],
      "name": "safeTransferFrom",
      "outputs": [],
      "stateMutability": "nonpayable",
      "type": "function"
    },
    {
      "inputs": [
        {
          "internalType": "address",
          "name": "operator",
          "type": "address"
        },
        {
          "internalType": "bool",
          "name": "approved",
          "type": "bool"
        }
      ],
      "name": "setApprovalForAll",
      "outputs": [],
      "stateMutability": "nonpayable",
      "type": "function"
    },
    {
      "inputs": [
        {
          "internalType": "bytes4",
          "name": "interfaceId",
          "type": "bytes4"
        }
      ],
      "name": "supportsInterface",
      "outputs": [
        {
          "internalType": "bool",
          "name": "",
          "type": "bool"
        }
      ],
      "stateMutability": "view",
      "type": "function"
    },
    {
      "inputs": [],
      "name": "symbol",
      "outputs": [
        {
          "internalType": "string",
          "name": "",
          "type": "string"
        }
      ],
      "stateMutability": "view",
      "type": "function"
    },
    {
      "inputs": [],
      "name": "tokenIdCounter",
      "outputs": [
        {
          "internalType": "uint256",
          "name": "_value",
          "type": "uint256"
        }
      ],
      "stateMutability": "view",
      "type": "function"
    },
    {
      "inputs": [
        {
          "internalType": "uint256",
          "name": "tokenId",
          "type": "uint256"
        }
      ],
      "name": "tokenURI",
      "outputs": [
        {
          "internalType": "string",
          "name": "",
          "type": "string"
        }
      ],
      "stateMutability": "view",
      "type": "function"
    },
    {
      "inputs": [
        {
          "internalType": "address",
          "name": "from",
          "type": "address"
        },
        {
          "internalType": "address",
          "name": "to",
          "type": "address"
        },
        {
          "internalType": "uint256",
          "name": "tokenId",
          "type": "uint256"
        }
      ],
      "name": "transferFrom",
      "outputs": [],
      "stateMutability": "nonpayable",
      "type": "function"
    },
    {
      "inputs": [
        {
          "internalType": "address",
          "name": "from",
          "type": "address"
        },
        {
          "internalType": "address",
          "name": "to",
          "type": "address"
        },
        {
          "internalType": "uint256",
          "name": "tokenId",
          "type": "uint256"
        }
      ],
      "name": "transferToken",
      "outputs": [],
      "stateMutability": "nonpayable",
      "type": "function"
    }
  ],
  "bytecode": "0x608060405260405180606001604052806040518060800160405280604d8152602001620035f6604d913981526020016040518060800160405280605681526020016200354a605691398152602001604051806080016040528060568152602001620035a06056913981525060089060036200007c92919062000165565b503480156200008a57600080fd5b5060405162003643380380620036438339818101604052810190620000b091906200032a565b6040518060400160405280601981526020017f466c6f77657220426f6f7463616d7020506f72747567756573000000000000008152506040518060400160405280600381526020017f464c4f0000000000000000000000000000000000000000000000000000000000815250816000908051906020019062000134929190620001cc565b5080600190805190602001906200014d929190620001cc565b50505080600a819055504260098190555050620003c1565b828054828255906000526020600020908101928215620001b9579160200282015b82811115620001b8578251829080519060200190620001a7929190620001cc565b509160200191906001019062000186565b5b509050620001c891906200025d565b5090565b828054620001da906200038b565b90600052602060002090601f016020900481019282620001fe57600085556200024a565b82601f106200021957805160ff19168380011785556200024a565b828001600101855582156200024a579182015b82811115620002495782518255916020019190600101906200022c565b5b50905062000259919062000285565b5090565b5b80821115620002815760008181620002779190620002a4565b506001016200025e565b5090565b5b80821115620002a057600081600090555060010162000286565b5090565b508054620002b2906200038b565b6000825580601f10620002c65750620002e7565b601f016020900490600052602060002090810190620002e6919062000285565b5b50565b600080fd5b6000819050919050565b6200030481620002ef565b81146200031057600080fd5b50565b6000815190506200032481620002f9565b92915050565b600060208284031215620003435762000342620002ea565b5b6000620003538482850162000313565b91505092915050565b7f4e487b7100000000000000000000000000000000000000000000000000000000600052602260045260246000fd5b60006002820490506001821680620003a457607f821691505b60208210811415620003bb57620003ba6200035c565b5b50919050565b61317980620003d16000396000f3fe608060405234801561001057600080fd5b50600436106101375760003560e01c80636e04ff0d116100b8578063b88d4fde1161007c578063b88d4fde1461034b578063bed34bba14610367578063c87b56dd14610397578063d9f2f7a2146103c7578063e985e9c5146103f7578063f5537ede1461042757610137565b80636e04ff0d1461029257806370a08231146102c357806395d89b41146102f357806398bdf6f514610311578063a22cb4651461032f57610137565b80632b98af8d116100ff5780632b98af8d146101f257806340d097c31461020e57806342842e0e1461022a5780634585e33b146102465780636352211e1461026257610137565b806301ffc9a71461013c57806306fdde031461016c578063081812fc1461018a578063095ea7b3146101ba57806323b872dd146101d6575b600080fd5b61015660048036038101906101519190612078565b610443565b60405161016391906120c0565b60405180910390f35b610174610525565b6040516101819190612174565b60405180910390f35b6101a4600480360381019061019f91906121cc565b6105b7565b6040516101b1919061223a565b60405180910390f35b6101d460048036038101906101cf9190612281565b6105fd565b005b6101f060048036038101906101eb91906122c1565b610715565b005b61020c600480360381019061020791906121cc565b610775565b005b61022860048036038101906102239190612314565b61085e565b005b610244600480360381019061023f91906122c1565b610935565b005b610260600480360381019061025b91906123a6565b610955565b005b61027c600480360381019061027791906121cc565b61099c565b604051610289919061223a565b60405180910390f35b6102ac60048036038101906102a791906123a6565b610a23565b6040516102ba929190612448565b60405180910390f35b6102dd60048036038101906102d89190612314565b610a7f565b6040516102ea9190612487565b60405180910390f35b6102fb610b37565b6040516103089190612174565b60405180910390f35b610319610bc9565b6040516103269190612487565b60405180910390f35b610349600480360381019061034491906124ce565b610bd5565b005b6103656004803603810190610360919061263e565b610beb565b005b610381600480360381019061037c9190612762565b610c4d565b60405161038e91906120c0565b60405180910390f35b6103b160048036038101906103ac91906121cc565b610ca6565b6040516103be9190612174565b60405180910390f35b6103e160048036038101906103dc91906121cc565b610cb8565b6040516103ee9190612487565b60405180910390f35b610411600480360381019061040c91906127da565b610e51565b60405161041e91906120c0565b60405180910390f35b610441600480360381019061043c91906122c1565b610ee5565b005b60007f80ac58cd000000000000000000000000000000000000000000000000000000007bffffffffffffffffffffffffffffffffffffffffffffffffffffffff1916827bffffffffffffffffffffffffffffffffffffffffffffffffffffffff1916148061050e57507f5b5e139f000000000000000000000000000000000000000000000000000000007bffffffffffffffffffffffffffffffffffffffffffffffffffffffff1916827bffffffffffffffffffffffffffffffffffffffffffffffffffffffff1916145b8061051e575061051d82610f6b565b5b9050919050565b60606000805461053490612849565b80601f016020809104026020016040519081016040528092919081815260200182805461056090612849565b80156105ad5780601f10610582576101008083540402835291602001916105ad565b820191906000526020600020905b81548152906001019060200180831161059057829003601f168201915b5050505050905090565b60006105c282610fd5565b6004600083815260200190815260200160002060009054906101000a900473ffffffffffffffffffffffffffffffffffffffff169050919050565b60006106088261099c565b90508073ffffffffffffffffffffffffffffffffffffffff168373ffffffffffffffffffffffffffffffffffffffff161415610679576040517f08c379a0000000000000000000000000000000000000000000000000000000008152600401610670906128ed565b60405180910390fd5b8073ffffffffffffffffffffffffffffffffffffffff16610698611020565b73ffffffffffffffffffffffffffffffffffffffff1614806106c757506106c6816106c1611020565b610e51565b5b610706576040517f08c379a00000000000000000000000000000000000000000000000000000000081526004016106fd9061297f565b60405180910390fd5b6107108383611028565b505050565b610726610720611020565b826110e1565b610765576040517f08c379a000000000000000000000000000000000000000000000000000000000815260040161075c90612a11565b60405180910390fd5b610770838383611176565b505050565b600261078082610cb8565b1061078a5761085b565b6000600161079783610cb8565b6107a19190612a60565b90506000600882815481106107b9576107b8612ab6565b5b9060005260206000200180546107ce90612849565b80601f01602080910402602001604051908101604052809291908181526020018280546107fa90612849565b80156108475780601f1061081c57610100808354040283529160200191610847565b820191906000526020600020905b81548152906001019060200180831161082a57829003601f168201915b505050505090506108588382611470565b50505b50565b600061086a60076114e4565b905061087660076114f2565b6108808282611508565b61093181600860008154811061089957610898612ab6565b5b9060005260206000200180546108ae90612849565b80601f01602080910402602001604051908101604052809291908181526020018280546108da90612849565b80156109275780601f106108fc57610100808354040283529160200191610927565b820191906000526020600020905b81548152906001019060200180831161090a57829003601f168201915b5050505050611470565b5050565b61095083838360405180602001604052806000815250610beb565b505050565b600a54600954426109669190612ae5565b111561099857426009819055506000600161098160076114e4565b61098b9190612ae5565b905061099681610775565b505b5050565b6000806109a883611526565b9050600073ffffffffffffffffffffffffffffffffffffffff168173ffffffffffffffffffffffffffffffffffffffff161415610a1a576040517f08c379a0000000000000000000000000000000000000000000000000000000008152600401610a1190612b65565b60405180910390fd5b80915050919050565b6000606060006001610a3560076114e4565b610a3f9190612ae5565b905060006002610a4e83610cb8565b10610a5857600190505b80158015610a745750600a5460095442610a729190612ae5565b115b935050509250929050565b60008073ffffffffffffffffffffffffffffffffffffffff168273ffffffffffffffffffffffffffffffffffffffff161415610af0576040517f08c379a0000000000000000000000000000000000000000000000000000000008152600401610ae790612bf7565b60405180910390fd5b600360008373ffffffffffffffffffffffffffffffffffffffff1673ffffffffffffffffffffffffffffffffffffffff168152602001908152602001600020549050919050565b606060018054610b4690612849565b80601f0160208091040260200160405190810160405280929190818152602001828054610b7290612849565b8015610bbf5780601f10610b9457610100808354040283529160200191610bbf565b820191906000526020600020905b815481529060010190602001808311610ba257829003601f168201915b5050505050905090565b60078060000154905081565b610be7610be0611020565b8383611563565b5050565b610bfc610bf6611020565b836110e1565b610c3b576040517f08c379a0000000000000000000000000000000000000000000000000000000008152600401610c3290612a11565b60405180910390fd5b610c47848484846116d0565b50505050565b600081604051602001610c609190612c53565b6040516020818303038152906040528051906020012083604051602001610c879190612c53565b6040516020818303038152906040528051906020012014905092915050565b6060610cb18261172c565b9050919050565b600080610cc483610ca6565b9050610d77816008600081548110610cdf57610cde612ab6565b5b906000526020600020018054610cf490612849565b80601f0160208091040260200160405190810160405280929190818152602001828054610d2090612849565b8015610d6d5780601f10610d4257610100808354040283529160200191610d6d565b820191906000526020600020905b815481529060010190602001808311610d5057829003601f168201915b5050505050610c4d565b15610d86576000915050610e4c565b610e37816008600181548110610d9f57610d9e612ab6565b5b906000526020600020018054610db490612849565b80601f0160208091040260200160405190810160405280929190818152602001828054610de090612849565b8015610e2d5780601f10610e0257610100808354040283529160200191610e2d565b820191906000526020600020905b815481529060010190602001808311610e1057829003601f168201915b5050505050610c4d565b15610e46576001915050610e4c565b60029150505b919050565b6000600560008473ffffffffffffffffffffffffffffffffffffffff1673ffffffffffffffffffffffffffffffffffffffff16815260200190815260200160002060008373ffffffffffffffffffffffffffffffffffffffff1673ffffffffffffffffffffffffffffffffffffffff16815260200190815260200160002060009054906101000a900460ff16905092915050565b8273ffffffffffffffffffffffffffffffffffffffff16610f058261099c565b73ffffffffffffffffffffffffffffffffffffffff1614610f5b576040517f08c379a0000000000000000000000000000000000000000000000000000000008152600401610f5290612cb6565b60405180910390fd5b610f66838383611176565b505050565b60007f01ffc9a7000000000000000000000000000000000000000000000000000000007bffffffffffffffffffffffffffffffffffffffffffffffffffffffff1916827bffffffffffffffffffffffffffffffffffffffffffffffffffffffff1916149050919050565b610fde8161183f565b61101d576040517f08c379a000000000000000000000000000000000000000000000000000000000815260040161101490612b65565b60405180910390fd5b50565b600033905090565b816004600083815260200190815260200160002060006101000a81548173ffffffffffffffffffffffffffffffffffffffff021916908373ffffffffffffffffffffffffffffffffffffffff160217905550808273ffffffffffffffffffffffffffffffffffffffff1661109b8361099c565b73ffffffffffffffffffffffffffffffffffffffff167f8c5be1e5ebec7d5bd14f71427d1e84f3dd0314c0f7b2291e5b200ac8c7c3b92560405160405180910390a45050565b6000806110ed8361099c565b90508073ffffffffffffffffffffffffffffffffffffffff168473ffffffffffffffffffffffffffffffffffffffff16148061112f575061112e8185610e51565b5b8061116d57508373ffffffffffffffffffffffffffffffffffffffff16611155846105b7565b73ffffffffffffffffffffffffffffffffffffffff16145b91505092915050565b8273ffffffffffffffffffffffffffffffffffffffff166111968261099c565b73ffffffffffffffffffffffffffffffffffffffff16146111ec576040517f08c379a00000000000000000000000000000000000000000000000000000000081526004016111e390612d48565b60405180910390fd5b600073ffffffffffffffffffffffffffffffffffffffff168273ffffffffffffffffffffffffffffffffffffffff16141561125c576040517f08c379a000000000000000000000000000000000000000000000000000000000815260040161125390612dda565b60405180910390fd5b6112698383836001611880565b8273ffffffffffffffffffffffffffffffffffffffff166112898261099c565b73ffffffffffffffffffffffffffffffffffffffff16146112df576040517f08c379a00000000000000000000000000000000000000000000000000000000081526004016112d690612d48565b60405180910390fd5b6004600082815260200190815260200160002060006101000a81549073ffffffffffffffffffffffffffffffffffffffff02191690556001600360008573ffffffffffffffffffffffffffffffffffffffff1673ffffffffffffffffffffffffffffffffffffffff168152602001908152602001600020600082825403925050819055506001600360008473ffffffffffffffffffffffffffffffffffffffff1673ffffffffffffffffffffffffffffffffffffffff16815260200190815260200160002060008282540192505081905550816002600083815260200190815260200160002060006101000a81548173ffffffffffffffffffffffffffffffffffffffff021916908373ffffffffffffffffffffffffffffffffffffffff160217905550808273ffffffffffffffffffffffffffffffffffffffff168473ffffffffffffffffffffffffffffffffffffffff167fddf252ad1be2c89b69c2b068fc378daa952ba7f163c4a11628f55a4df523b3ef60405160405180910390a461146b8383836001611886565b505050565b6114798261183f565b6114b8576040517f08c379a00000000000000000000000000000000000000000000000000000000081526004016114af90612e6c565b60405180910390fd5b806006600084815260200190815260200160002090805190602001906114df929190611f69565b505050565b600081600001549050919050565b6001816000016000828254019250508190555050565b61152282826040518060200160405280600081525061188c565b5050565b60006002600083815260200190815260200160002060009054906101000a900473ffffffffffffffffffffffffffffffffffffffff169050919050565b8173ffffffffffffffffffffffffffffffffffffffff168373ffffffffffffffffffffffffffffffffffffffff1614156115d2576040517f08c379a00000000000000000000000000000000000000000000000000000000081526004016115c990612ed8565b60405180910390fd5b80600560008573ffffffffffffffffffffffffffffffffffffffff1673ffffffffffffffffffffffffffffffffffffffff16815260200190815260200160002060008473ffffffffffffffffffffffffffffffffffffffff1673ffffffffffffffffffffffffffffffffffffffff16815260200190815260200160002060006101000a81548160ff0219169083151502179055508173ffffffffffffffffffffffffffffffffffffffff168373ffffffffffffffffffffffffffffffffffffffff167f17307eab39ab6107e8899845ad3d59bd9653f200f220920489ca2b5937696c31836040516116c391906120c0565b60405180910390a3505050565b6116db848484611176565b6116e7848484846118e7565b611726576040517f08c379a000000000000000000000000000000000000000000000000000000000815260040161171d90612f6a565b60405180910390fd5b50505050565b606061173782610fd5565b600060066000848152602001908152602001600020805461175790612849565b80601f016020809104026020016040519081016040528092919081815260200182805461178390612849565b80156117d05780601f106117a5576101008083540402835291602001916117d0565b820191906000526020600020905b8154815290600101906020018083116117b357829003601f168201915b5050505050905060006117e1611a7e565b90506000815114156117f757819250505061183a565b60008251111561182c578082604051602001611814929190612f8a565b6040516020818303038152906040529250505061183a565b61183584611a95565b925050505b919050565b60008073ffffffffffffffffffffffffffffffffffffffff1661186183611526565b73ffffffffffffffffffffffffffffffffffffffff1614159050919050565b50505050565b50505050565b6118968383611afd565b6118a360008484846118e7565b6118e2576040517f08c379a00000000000000000000000000000000000000000000000000000000081526004016118d990612f6a565b60405180910390fd5b505050565b60006119088473ffffffffffffffffffffffffffffffffffffffff16611d1b565b15611a71578373ffffffffffffffffffffffffffffffffffffffff1663150b7a02611931611020565b8786866040518563ffffffff1660e01b81526004016119539493929190612fae565b602060405180830381600087803b15801561196d57600080fd5b505af192505050801561199e57506040513d601f19601f8201168201806040525081019061199b919061300f565b60015b611a21573d80600081146119ce576040519150601f19603f3d011682016040523d82523d6000602084013e6119d3565b606091505b50600081511415611a19576040517f08c379a0000000000000000000000000000000000000000000000000000000008152600401611a1090612f6a565b60405180910390fd5b805181602001fd5b63150b7a0260e01b7bffffffffffffffffffffffffffffffffffffffffffffffffffffffff1916817bffffffffffffffffffffffffffffffffffffffffffffffffffffffff191614915050611a76565b600190505b949350505050565b606060405180602001604052806000815250905090565b6060611aa082610fd5565b6000611aaa611a7e565b90506000815111611aca5760405180602001604052806000815250611af5565b80611ad484611d3e565b604051602001611ae5929190612f8a565b6040516020818303038152906040525b915050919050565b600073ffffffffffffffffffffffffffffffffffffffff168273ffffffffffffffffffffffffffffffffffffffff161415611b6d576040517f08c379a0000000000000000000000000000000000000000000000000000000008152600401611b6490613088565b60405180910390fd5b611b768161183f565b15611bb6576040517f08c379a0000000000000000000000000000000000000000000000000000000008152600401611bad906130f4565b60405180910390fd5b611bc4600083836001611880565b611bcd8161183f565b15611c0d576040517f08c379a0000000000000000000000000000000000000000000000000000000008152600401611c04906130f4565b60405180910390fd5b6001600360008473ffffffffffffffffffffffffffffffffffffffff1673ffffffffffffffffffffffffffffffffffffffff16815260200190815260200160002060008282540192505081905550816002600083815260200190815260200160002060006101000a81548173ffffffffffffffffffffffffffffffffffffffff021916908373ffffffffffffffffffffffffffffffffffffffff160217905550808273ffffffffffffffffffffffffffffffffffffffff16600073ffffffffffffffffffffffffffffffffffffffff167fddf252ad1be2c89b69c2b068fc378daa952ba7f163c4a11628f55a4df523b3ef60405160405180910390a4611d17600083836001611886565b5050565b6000808273ffffffffffffffffffffffffffffffffffffffff163b119050919050565b606060006001611d4d84611e16565b01905060008167ffffffffffffffff811115611d6c57611d6b612513565b5b6040519080825280601f01601f191660200182016040528015611d9e5781602001600182028036833780820191505090505b509050600082602001820190505b600115611e0b578080600190039150507f3031323334353637383961626364656600000000000000000000000000000000600a86061a8153600a8581611df557611df4613114565b5b0494506000851415611e0657611e0b565b611dac565b819350505050919050565b600080600090507a184f03e93ff9f4daa797ed6e38ed64bf6a1f0100000000000000008310611e74577a184f03e93ff9f4daa797ed6e38ed64bf6a1f0100000000000000008381611e6a57611e69613114565b5b0492506040810190505b6d04ee2d6d415b85acef81000000008310611eb1576d04ee2d6d415b85acef81000000008381611ea757611ea6613114565b5b0492506020810190505b662386f26fc100008310611ee057662386f26fc100008381611ed657611ed5613114565b5b0492506010810190505b6305f5e1008310611f09576305f5e1008381611eff57611efe613114565b5b0492506008810190505b6127108310611f2e576127108381611f2457611f23613114565b5b0492506004810190505b60648310611f515760648381611f4757611f46613114565b5b0492506002810190505b600a8310611f60576001810190505b80915050919050565b828054611f7590612849565b90600052602060002090601f016020900481019282611f975760008555611fde565b82601f10611fb057805160ff1916838001178555611fde565b82800160010185558215611fde579182015b82811115611fdd578251825591602001919060010190611fc2565b5b509050611feb9190611fef565b5090565b5b80821115612008576000816000905550600101611ff0565b5090565b6000604051905090565b600080fd5b600080fd5b60007fffffffff0000000000000000000000000000000000000000000000000000000082169050919050565b61205581612020565b811461206057600080fd5b50565b6000813590506120728161204c565b92915050565b60006020828403121561208e5761208d612016565b5b600061209c84828501612063565b91505092915050565b60008115159050919050565b6120ba816120a5565b82525050565b60006020820190506120d560008301846120b1565b92915050565b600081519050919050565b600082825260208201905092915050565b60005b838110156121155780820151818401526020810190506120fa565b83811115612124576000848401525b50505050565b6000601f19601f8301169050919050565b6000612146826120db565b61215081856120e6565b93506121608185602086016120f7565b6121698161212a565b840191505092915050565b6000602082019050818103600083015261218e818461213b565b905092915050565b6000819050919050565b6121a981612196565b81146121b457600080fd5b50565b6000813590506121c6816121a0565b92915050565b6000602082840312156121e2576121e1612016565b5b60006121f0848285016121b7565b91505092915050565b600073ffffffffffffffffffffffffffffffffffffffff82169050919050565b6000612224826121f9565b9050919050565b61223481612219565b82525050565b600060208201905061224f600083018461222b565b92915050565b61225e81612219565b811461226957600080fd5b50565b60008135905061227b81612255565b92915050565b6000806040838503121561229857612297612016565b5b60006122a68582860161226c565b92505060206122b7858286016121b7565b9150509250929050565b6000806000606084860312156122da576122d9612016565b5b60006122e88682870161226c565b93505060206122f98682870161226c565b925050604061230a868287016121b7565b9150509250925092565b60006020828403121561232a57612329612016565b5b60006123388482850161226c565b91505092915050565b600080fd5b600080fd5b600080fd5b60008083601f84011261236657612365612341565b5b8235905067ffffffffffffffff81111561238357612382612346565b5b60208301915083600182028301111561239f5761239e61234b565b5b9250929050565b600080602083850312156123bd576123bc612016565b5b600083013567ffffffffffffffff8111156123db576123da61201b565b5b6123e785828601612350565b92509250509250929050565b600081519050919050565b600082825260208201905092915050565b600061241a826123f3565b61242481856123fe565b93506124348185602086016120f7565b61243d8161212a565b840191505092915050565b600060408201905061245d60008301856120b1565b818103602083015261246f818461240f565b90509392505050565b61248181612196565b82525050565b600060208201905061249c6000830184612478565b92915050565b6124ab816120a5565b81146124b657600080fd5b50565b6000813590506124c8816124a2565b92915050565b600080604083850312156124e5576124e4612016565b5b60006124f38582860161226c565b9250506020612504858286016124b9565b9150509250929050565b600080fd5b7f4e487b7100000000000000000000000000000000000000000000000000000000600052604160045260246000fd5b61254b8261212a565b810181811067ffffffffffffffff8211171561256a57612569612513565b5b80604052505050565b600061257d61200c565b90506125898282612542565b919050565b600067ffffffffffffffff8211156125a9576125a8612513565b5b6125b28261212a565b9050602081019050919050565b82818337600083830152505050565b60006125e16125dc8461258e565b612573565b9050828152602081018484840111156125fd576125fc61250e565b5b6126088482856125bf565b509392505050565b600082601f83011261262557612624612341565b5b81356126358482602086016125ce565b91505092915050565b6000806000806080858703121561265857612657612016565b5b60006126668782880161226c565b94505060206126778782880161226c565b9350506040612688878288016121b7565b925050606085013567ffffffffffffffff8111156126a9576126a861201b565b5b6126b587828801612610565b91505092959194509250565b600067ffffffffffffffff8211156126dc576126db612513565b5b6126e58261212a565b9050602081019050919050565b6000612705612700846126c1565b612573565b9050828152602081018484840111156127215761272061250e565b5b61272c8482856125bf565b509392505050565b600082601f83011261274957612748612341565b5b81356127598482602086016126f2565b91505092915050565b6000806040838503121561277957612778612016565b5b600083013567ffffffffffffffff8111156127975761279661201b565b5b6127a385828601612734565b925050602083013567ffffffffffffffff8111156127c4576127c361201b565b5b6127d085828601612734565b9150509250929050565b600080604083850312156127f1576127f0612016565b5b60006127ff8582860161226c565b92505060206128108582860161226c565b9150509250929050565b7f4e487b7100000000000000000000000000000000000000000000000000000000600052602260045260246000fd5b6000600282049050600182168061286157607f821691505b602082108114156128755761287461281a565b5b50919050565b7f4552433732313a20617070726f76616c20746f2063757272656e74206f776e6560008201527f7200000000000000000000000000000000000000000000000000000000000000602082015250565b60006128d76021836120e6565b91506128e28261287b565b604082019050919050565b60006020820190508181036000830152612906816128ca565b9050919050565b7f4552433732313a20617070726f76652063616c6c6572206973206e6f7420746f60008201527f6b656e206f776e6572206f7220617070726f76656420666f7220616c6c000000602082015250565b6000612969603d836120e6565b91506129748261290d565b604082019050919050565b600060208201905081810360008301526129988161295c565b9050919050565b7f4552433732313a2063616c6c6572206973206e6f7420746f6b656e206f776e6560008201527f72206f7220617070726f76656400000000000000000000000000000000000000602082015250565b60006129fb602d836120e6565b9150612a068261299f565b604082019050919050565b60006020820190508181036000830152612a2a816129ee565b9050919050565b7f4e487b7100000000000000000000000000000000000000000000000000000000600052601160045260246000fd5b6000612a6b82612196565b9150612a7683612196565b9250827fffffffffffffffffffffffffffffffffffffffffffffffffffffffffffffffff03821115612aab57612aaa612a31565b5b828201905092915050565b7f4e487b7100000000000000000000000000000000000000000000000000000000600052603260045260246000fd5b6000612af082612196565b9150612afb83612196565b925082821015612b0e57612b0d612a31565b5b828203905092915050565b7f4552433732313a20696e76616c696420746f6b656e2049440000000000000000600082015250565b6000612b4f6018836120e6565b9150612b5a82612b19565b602082019050919050565b60006020820190508181036000830152612b7e81612b42565b9050919050565b7f4552433732313a2061646472657373207a65726f206973206e6f74206120766160008201527f6c6964206f776e65720000000000000000000000000000000000000000000000602082015250565b6000612be16029836120e6565b9150612bec82612b85565b604082019050919050565b60006020820190508181036000830152612c1081612bd4565b9050919050565b600081905092915050565b6000612c2d826120db565b612c378185612c17565b9350612c478185602086016120f7565b80840191505092915050565b6000612c5f8284612c22565b915081905092915050565b7f46726f6d2061646472657373206d75737420626520746f6b656e206f776e6572600082015250565b6000612ca06020836120e6565b9150612cab82612c6a565b602082019050919050565b60006020820190508181036000830152612ccf81612c93565b9050919050565b7f4552433732313a207472616e736665722066726f6d20696e636f72726563742060008201527f6f776e6572000000000000000000000000000000000000000000000000000000602082015250565b6000612d326025836120e6565b9150612d3d82612cd6565b604082019050919050565b60006020820190508181036000830152612d6181612d25565b9050919050565b7f4552433732313a207472616e7366657220746f20746865207a65726f2061646460008201527f7265737300000000000000000000000000000000000000000000000000000000602082015250565b6000612dc46024836120e6565b9150612dcf82612d68565b604082019050919050565b60006020820190508181036000830152612df381612db7565b9050919050565b7f45524337323155524953746f726167653a2055524920736574206f66206e6f6e60008201527f6578697374656e7420746f6b656e000000000000000000000000000000000000602082015250565b6000612e56602e836120e6565b9150612e6182612dfa565b604082019050919050565b60006020820190508181036000830152612e8581612e49565b9050919050565b7f4552433732313a20617070726f766520746f2063616c6c657200000000000000600082015250565b6000612ec26019836120e6565b9150612ecd82612e8c565b602082019050919050565b60006020820190508181036000830152612ef181612eb5565b9050919050565b7f4552433732313a207472616e7366657220746f206e6f6e20455243373231526560008201527f63656976657220696d706c656d656e7465720000000000000000000000000000602082015250565b6000612f546032836120e6565b9150612f5f82612ef8565b604082019050919050565b60006020820190508181036000830152612f8381612f47565b9050919050565b6000612f968285612c22565b9150612fa28284612c22565b91508190509392505050565b6000608082019050612fc3600083018761222b565b612fd0602083018661222b565b612fdd6040830185612478565b8181036060830152612fef818461240f565b905095945050505050565b6000815190506130098161204c565b92915050565b60006020828403121561302557613024612016565b5b600061303384828501612ffa565b91505092915050565b7f4552433732313a206d696e7420746f20746865207a65726f2061646472657373600082015250565b60006130726020836120e6565b915061307d8261303c565b602082019050919050565b600060208201905081810360008301526130a181613065565b9050919050565b7f4552433732313a20746f6b656e20616c7265616479206d696e74656400000000600082015250565b60006130de601c836120e6565b91506130e9826130a8565b602082019050919050565b6000602082019050818103600083015261310d816130d1565b9050919050565b7f4e487b7100000000000000000000000000000000000000000000000000000000600052601260045260246000fdfea264697066735822122049f1044a8ac1d6ae54b6392eaf0889d9ec64a79d2d49731e816a439eee30c2ca64736f6c6343000809003368747470733a2f2f697066732e696f2f697066732f516d59615473797854446e724734746f6338373231773632724c345a424b585154476a396339527064726e746f752f707572706c652d7370726f75742e6a736f6e68747470733a2f2f697066732e696f2f697066732f516d59615473797854446e724734746f6338373231773632724c345a424b585154476a396339527064726e746f752f707572706c652d626c6f6f6d732e6a736f6e68747470733a2f2f697066732e696f2f697066732f516d59615473797854446e724734746f6338373231773632724c345a424b585154476a396339527064726e746f752f736565642e6a736f6e",
  "linkReferences": {},
  "deployedLinkReferences": {}
}