{
  "_format": "hh-sol-artifact-1",
  "contractName": "TalkawayERC721",
  "sourceName": "contracts/TalkawayERC721.sol",
  "abi": [
    {
      "inputs": [],
      "stateMutability": "nonpayable",
      "type": "constructor"
    },
    {
      "anonymous": false,
      "inputs": [
        {
          "indexed": true,
          "internalType": "address",
          "name": "owner",
          "type": "address"
        },
        {
          "indexed": true,
          "internalType": "address",
          "name": "approved",
          "type": "address"
        },
        {
          "indexed": true,
          "internalType": "uint256",
          "name": "tokenId",
          "type": "uint256"
        }
      ],
      "name": "Approval",
      "type": "event"
    },
    {
      "anonymous": false,
      "inputs": [
        {
          "indexed": true,
          "internalType": "address",
          "name": "owner",
          "type": "address"
        },
        {
          "indexed": true,
          "internalType": "address",
          "name": "operator",
          "type": "address"
        },
        {
          "indexed": false,
          "internalType": "bool",
          "name": "approved",
          "type": "bool"
        }
      ],
      "name": "ApprovalForAll",
      "type": "event"
    },
    {
      "anonymous": false,
      "inputs": [
        {
          "indexed": true,
          "internalType": "address",
          "name": "from",
          "type": "address"
        },
        {
          "indexed": true,
          "internalType": "address",
          "name": "to",
          "type": "address"
        },
        {
          "indexed": true,
          "internalType": "uint256",
          "name": "tokenId",
          "type": "uint256"
        }
      ],
      "name": "Transfer",
      "type": "event"
    },
    {
      "inputs": [
        {
          "internalType": "uint256",
          "name": "",
          "type": "uint256"
        }
      ],
      "name": "alunos",
      "outputs": [
        {
          "internalType": "address",
          "name": "aluno",
          "type": "address"
        },
        {
          "internalType": "uint256",
          "name": "nivel",
          "type": "uint256"
        }
      ],
      "stateMutability": "view",
      "type": "function"
    },
    {
      "inputs": [
        {
          "internalType": "address",
          "name": "to",
          "type": "address"
        },
        {
          "internalType": "uint256",
          "name": "tokenId",
          "type": "uint256"
        }
      ],
      "name": "approve",
      "outputs": [],
      "stateMutability": "nonpayable",
      "type": "function"
    },
    {
      "inputs": [
        {
          "internalType": "address",
          "name": "owner",
          "type": "address"
        }
      ],
      "name": "balanceOf",
      "outputs": [
        {
          "internalType": "uint256",
          "name": "",
          "type": "uint256"
        }
      ],
      "stateMutability": "view",
      "type": "function"
    },
    {
      "inputs": [
        {
          "internalType": "string",
          "name": "a",
          "type": "string"
        },
        {
          "internalType": "string",
          "name": "b",
          "type": "string"
        }
      ],
      "name": "compareStrings",
      "outputs": [
        {
          "internalType": "bool",
          "name": "",
          "type": "bool"
        }
      ],
      "stateMutability": "pure",
      "type": "function"
    },
    {
      "inputs": [
        {
          "internalType": "uint256",
          "name": "tokenId",
          "type": "uint256"
        }
      ],
      "name": "getApproved",
      "outputs": [
        {
          "internalType": "address",
          "name": "",
          "type": "address"
        }
      ],
      "stateMutability": "view",
      "type": "function"
    },
    {
      "inputs": [
        {
          "internalType": "address",
          "name": "owner",
          "type": "address"
        },
        {
          "internalType": "address",
          "name": "operator",
          "type": "address"
        }
      ],
      "name": "isApprovedForAll",
      "outputs": [
        {
          "internalType": "bool",
          "name": "",
          "type": "bool"
        }
      ],
      "stateMutability": "view",
      "type": "function"
    },
    {
      "inputs": [],
      "name": "name",
      "outputs": [
        {
          "internalType": "string",
          "name": "",
          "type": "string"
        }
      ],
      "stateMutability": "view",
      "type": "function"
    },
    {
      "inputs": [],
      "name": "owner",
      "outputs": [
        {
          "internalType": "address",
          "name": "",
          "type": "address"
        }
      ],
      "stateMutability": "view",
      "type": "function"
    },
    {
      "inputs": [
        {
          "internalType": "uint256",
          "name": "tokenId",
          "type": "uint256"
        }
      ],
      "name": "ownerOf",
      "outputs": [
        {
          "internalType": "address",
          "name": "",
          "type": "address"
        }
      ],
      "stateMutability": "view",
      "type": "function"
    },
    {
      "inputs": [
        {
          "internalType": "address",
          "name": "to",
          "type": "address"
        }
      ],
      "name": "safeMint",
      "outputs": [],
      "stateMutability": "nonpayable",
      "type": "function"
    },
    {
      "inputs": [
        {
          "internalType": "address",
          "name": "from",
          "type": "address"
        },
        {
          "internalType": "address",
          "name": "to",
          "type": "address"
        },
        {
          "internalType": "uint256",
          "name": "tokenId",
          "type": "uint256"
        }
      ],
      "name": "safeTransferFrom",
      "outputs": [],
      "stateMutability": "nonpayable",
      "type": "function"
    },
    {
      "inputs": [
        {
          "internalType": "address",
          "name": "from",
          "type": "address"
        },
        {
          "internalType": "address",
          "name": "to",
          "type": "address"
        },
        {
          "internalType": "uint256",
          "name": "tokenId",
          "type": "uint256"
        },
        {
          "internalType": "bytes",
          "name": "data",
          "type": "bytes"
        }
      ],
      "name": "safeTransferFrom",
      "outputs": [],
      "stateMutability": "nonpayable",
      "type": "function"
    },
    {
      "inputs": [
        {
          "internalType": "address",
          "name": "operator",
          "type": "address"
        },
        {
          "internalType": "bool",
          "name": "approved",
          "type": "bool"
        }
      ],
      "name": "setApprovalForAll",
      "outputs": [],
      "stateMutability": "nonpayable",
      "type": "function"
    },
    {
      "inputs": [
        {
          "internalType": "bytes4",
          "name": "interfaceId",
          "type": "bytes4"
        }
      ],
      "name": "supportsInterface",
      "outputs": [
        {
          "internalType": "bool",
          "name": "",
          "type": "bool"
        }
      ],
      "stateMutability": "view",
      "type": "function"
    },
    {
      "inputs": [],
      "name": "symbol",
      "outputs": [
        {
          "internalType": "string",
          "name": "",
          "type": "string"
        }
      ],
      "stateMutability": "view",
      "type": "function"
    },
    {
      "inputs": [],
      "name": "tokenIdCounter",
      "outputs": [
        {
          "internalType": "uint256",
          "name": "_value",
          "type": "uint256"
        }
      ],
      "stateMutability": "view",
      "type": "function"
    },
    {
      "inputs": [
        {
          "internalType": "uint256",
          "name": "tokenId",
          "type": "uint256"
        }
      ],
      "name": "tokenURI",
      "outputs": [
        {
          "internalType": "string",
          "name": "",
          "type": "string"
        }
      ],
      "stateMutability": "view",
      "type": "function"
    },
    {
      "inputs": [
        {
          "internalType": "address",
          "name": "from",
          "type": "address"
        },
        {
          "internalType": "address",
          "name": "to",
          "type": "address"
        },
        {
          "internalType": "uint256",
          "name": "tokenId",
          "type": "uint256"
        }
      ],
      "name": "transferFrom",
      "outputs": [],
      "stateMutability": "nonpayable",
      "type": "function"
    },
    {
      "inputs": [
        {
          "internalType": "uint256",
          "name": "",
          "type": "uint256"
        }
      ],
      "name": "tutores",
      "outputs": [
        {
          "internalType": "address",
          "name": "tutor",
          "type": "address"
        },
        {
          "internalType": "uint256",
          "name": "score",
          "type": "uint256"
        }
      ],
      "stateMutability": "view",
      "type": "function"
    },
    {
      "inputs": [
        {
          "internalType": "address",
          "name": "",
          "type": "address"
        }
      ],
      "name": "whiteList",
      "outputs": [
        {
          "internalType": "bool",
          "name": "",
          "type": "bool"
        }
      ],
      "stateMutability": "view",
      "type": "function"
    }
  ],
  "bytecode": "0x6080604052604051806020016040528060405180608001604052806054815260200162002fc060549139815250600c9060016200003e929190620000f3565b503480156200004c57600080fd5b506040518060400160405280602081526020017f54616c6b61776179204c616e6775616765202d20436572746966696361646f738152506040518060400160405280600381526020017f544b5700000000000000000000000000000000000000000000000000000000008152508160009080519060200190620000d19291906200015a565b508060019080519060200190620000ea9291906200015a565b505050620002dd565b82805482825590600052602060002090810192821562000147579160200282015b8281111562000146578251829080519060200190620001359291906200015a565b509160200191906001019062000114565b5b509050620001569190620001eb565b5090565b8280546200016890620002a7565b90600052602060002090601f0160209004810192826200018c5760008555620001d8565b82601f10620001a757805160ff1916838001178555620001d8565b82800160010185558215620001d8579182015b82811115620001d7578251825591602001919060010190620001ba565b5b509050620001e7919062000213565b5090565b5b808211156200020f576000818162000205919062000232565b50600101620001ec565b5090565b5b808211156200022e57600081600090555060010162000214565b5090565b5080546200024090620002a7565b6000825580601f1062000254575062000275565b601f01602090049060005260206000209081019062000274919062000213565b5b50565b7f4e487b7100000000000000000000000000000000000000000000000000000000600052602260045260246000fd5b60006002820490506001821680620002c057607f821691505b60208210811415620002d757620002d662000278565b5b50919050565b612cd380620002ed6000396000f3fe608060405234801561001057600080fd5b506004361061012c5760003560e01c8063676c1352116100ad578063a22cb46511610071578063a22cb4651461036b578063b88d4fde14610387578063bed34bba146103a3578063c87b56dd146103d3578063e985e9c5146104035761012c565b8063676c1352146102b057806370a08231146102e15780638da5cb5b1461031157806395d89b411461032f57806398bdf6f51461034d5761012c565b8063372c12b1116100f4578063372c12b1146101e757806340d097c31461021757806342842e0e146102335780634951d9831461024f5780636352211e146102805761012c565b806301ffc9a71461013157806306fdde0314610161578063081812fc1461017f578063095ea7b3146101af57806323b872dd146101cb575b600080fd5b61014b60048036038101906101469190611dab565b610433565b6040516101589190611df3565b60405180910390f35b610169610515565b6040516101769190611ea7565b60405180910390f35b61019960048036038101906101949190611eff565b6105a7565b6040516101a69190611f6d565b60405180910390f35b6101c960048036038101906101c49190611fb4565b6105ed565b005b6101e560048036038101906101e09190611ff4565b610705565b005b61020160048036038101906101fc9190612047565b610765565b60405161020e9190611df3565b60405180910390f35b610231600480360381019061022c9190612047565b610785565b005b61024d60048036038101906102489190611ff4565b61085c565b005b61026960048036038101906102649190611eff565b61087c565b604051610277929190612083565b60405180910390f35b61029a60048036038101906102959190611eff565b6108d0565b6040516102a79190611f6d565b60405180910390f35b6102ca60048036038101906102c59190611eff565b610957565b6040516102d8929190612083565b60405180910390f35b6102fb60048036038101906102f69190612047565b6109ab565b60405161030891906120ac565b60405180910390f35b610319610a63565b6040516103269190611f6d565b60405180910390f35b610337610a89565b6040516103449190611ea7565b60405180910390f35b610355610b1b565b60405161036291906120ac565b60405180910390f35b610385600480360381019061038091906120f3565b610b27565b005b6103a1600480360381019061039c9190612268565b610b3d565b005b6103bd60048036038101906103b8919061238c565b610b9f565b6040516103ca9190611df3565b60405180910390f35b6103ed60048036038101906103e89190611eff565b610bf8565b6040516103fa9190611ea7565b60405180910390f35b61041d60048036038101906104189190612404565b610c0a565b60405161042a9190611df3565b60405180910390f35b60007f80ac58cd000000000000000000000000000000000000000000000000000000007bffffffffffffffffffffffffffffffffffffffffffffffffffffffff1916827bffffffffffffffffffffffffffffffffffffffffffffffffffffffff191614806104fe57507f5b5e139f000000000000000000000000000000000000000000000000000000007bffffffffffffffffffffffffffffffffffffffffffffffffffffffff1916827bffffffffffffffffffffffffffffffffffffffffffffffffffffffff1916145b8061050e575061050d82610c9e565b5b9050919050565b60606000805461052490612473565b80601f016020809104026020016040519081016040528092919081815260200182805461055090612473565b801561059d5780601f106105725761010080835404028352916020019161059d565b820191906000526020600020905b81548152906001019060200180831161058057829003601f168201915b5050505050905090565b60006105b282610d08565b6004600083815260200190815260200160002060009054906101000a900473ffffffffffffffffffffffffffffffffffffffff169050919050565b60006105f8826108d0565b90508073ffffffffffffffffffffffffffffffffffffffff168373ffffffffffffffffffffffffffffffffffffffff161415610669576040517f08c379a000000000000000000000000000000000000000000000000000000000815260040161066090612517565b60405180910390fd5b8073ffffffffffffffffffffffffffffffffffffffff16610688610d53565b73ffffffffffffffffffffffffffffffffffffffff1614806106b757506106b6816106b1610d53565b610c0a565b5b6106f6576040517f08c379a00000000000000000000000000000000000000000000000000000000081526004016106ed906125a9565b60405180910390fd5b6107008383610d5b565b505050565b610716610710610d53565b82610e14565b610755576040517f08c379a000000000000000000000000000000000000000000000000000000000815260040161074c9061263b565b60405180910390fd5b610760838383610ea9565b505050565b600b6020528060005260406000206000915054906101000a900460ff1681565b600061079160076111a3565b905061079d60076111b1565b6107a782826111c7565b61085881600c6000815481106107c0576107bf61265b565b5b9060005260206000200180546107d590612473565b80601f016020809104026020016040519081016040528092919081815260200182805461080190612473565b801561084e5780601f106108235761010080835404028352916020019161084e565b820191906000526020600020905b81548152906001019060200180831161083157829003601f168201915b50505050506111e5565b5050565b61087783838360405180602001604052806000815250610b3d565b505050565b6009818154811061088c57600080fd5b90600052602060002090600202016000915090508060000160009054906101000a900473ffffffffffffffffffffffffffffffffffffffff16908060010154905082565b6000806108dc83611259565b9050600073ffffffffffffffffffffffffffffffffffffffff168173ffffffffffffffffffffffffffffffffffffffff16141561094e576040517f08c379a0000000000000000000000000000000000000000000000000000000008152600401610945906126d6565b60405180910390fd5b80915050919050565b6008818154811061096757600080fd5b90600052602060002090600202016000915090508060000160009054906101000a900473ffffffffffffffffffffffffffffffffffffffff16908060010154905082565b60008073ffffffffffffffffffffffffffffffffffffffff168273ffffffffffffffffffffffffffffffffffffffff161415610a1c576040517f08c379a0000000000000000000000000000000000000000000000000000000008152600401610a1390612768565b60405180910390fd5b600360008373ffffffffffffffffffffffffffffffffffffffff1673ffffffffffffffffffffffffffffffffffffffff168152602001908152602001600020549050919050565b600a60009054906101000a900473ffffffffffffffffffffffffffffffffffffffff1681565b606060018054610a9890612473565b80601f0160208091040260200160405190810160405280929190818152602001828054610ac490612473565b8015610b115780601f10610ae657610100808354040283529160200191610b11565b820191906000526020600020905b815481529060010190602001808311610af457829003601f168201915b5050505050905090565b60078060000154905081565b610b39610b32610d53565b8383611296565b5050565b610b4e610b48610d53565b83610e14565b610b8d576040517f08c379a0000000000000000000000000000000000000000000000000000000008152600401610b849061263b565b60405180910390fd5b610b9984848484611403565b50505050565b600081604051602001610bb291906127c4565b6040516020818303038152906040528051906020012083604051602001610bd991906127c4565b6040516020818303038152906040528051906020012014905092915050565b6060610c038261145f565b9050919050565b6000600560008473ffffffffffffffffffffffffffffffffffffffff1673ffffffffffffffffffffffffffffffffffffffff16815260200190815260200160002060008373ffffffffffffffffffffffffffffffffffffffff1673ffffffffffffffffffffffffffffffffffffffff16815260200190815260200160002060009054906101000a900460ff16905092915050565b60007f01ffc9a7000000000000000000000000000000000000000000000000000000007bffffffffffffffffffffffffffffffffffffffffffffffffffffffff1916827bffffffffffffffffffffffffffffffffffffffffffffffffffffffff1916149050919050565b610d1181611572565b610d50576040517f08c379a0000000000000000000000000000000000000000000000000000000008152600401610d47906126d6565b60405180910390fd5b50565b600033905090565b816004600083815260200190815260200160002060006101000a81548173ffffffffffffffffffffffffffffffffffffffff021916908373ffffffffffffffffffffffffffffffffffffffff160217905550808273ffffffffffffffffffffffffffffffffffffffff16610dce836108d0565b73ffffffffffffffffffffffffffffffffffffffff167f8c5be1e5ebec7d5bd14f71427d1e84f3dd0314c0f7b2291e5b200ac8c7c3b92560405160405180910390a45050565b600080610e20836108d0565b90508073ffffffffffffffffffffffffffffffffffffffff168473ffffffffffffffffffffffffffffffffffffffff161480610e625750610e618185610c0a565b5b80610ea057508373ffffffffffffffffffffffffffffffffffffffff16610e88846105a7565b73ffffffffffffffffffffffffffffffffffffffff16145b91505092915050565b8273ffffffffffffffffffffffffffffffffffffffff16610ec9826108d0565b73ffffffffffffffffffffffffffffffffffffffff1614610f1f576040517f08c379a0000000000000000000000000000000000000000000000000000000008152600401610f169061284d565b60405180910390fd5b600073ffffffffffffffffffffffffffffffffffffffff168273ffffffffffffffffffffffffffffffffffffffff161415610f8f576040517f08c379a0000000000000000000000000000000000000000000000000000000008152600401610f86906128df565b60405180910390fd5b610f9c83838360016115b3565b8273ffffffffffffffffffffffffffffffffffffffff16610fbc826108d0565b73ffffffffffffffffffffffffffffffffffffffff1614611012576040517f08c379a00000000000000000000000000000000000000000000000000000000081526004016110099061284d565b60405180910390fd5b6004600082815260200190815260200160002060006101000a81549073ffffffffffffffffffffffffffffffffffffffff02191690556001600360008573ffffffffffffffffffffffffffffffffffffffff1673ffffffffffffffffffffffffffffffffffffffff168152602001908152602001600020600082825403925050819055506001600360008473ffffffffffffffffffffffffffffffffffffffff1673ffffffffffffffffffffffffffffffffffffffff16815260200190815260200160002060008282540192505081905550816002600083815260200190815260200160002060006101000a81548173ffffffffffffffffffffffffffffffffffffffff021916908373ffffffffffffffffffffffffffffffffffffffff160217905550808273ffffffffffffffffffffffffffffffffffffffff168473ffffffffffffffffffffffffffffffffffffffff167fddf252ad1be2c89b69c2b068fc378daa952ba7f163c4a11628f55a4df523b3ef60405160405180910390a461119e83838360016115b9565b505050565b600081600001549050919050565b6001816000016000828254019250508190555050565b6111e18282604051806020016040528060008152506115bf565b5050565b6111ee82611572565b61122d576040517f08c379a000000000000000000000000000000000000000000000000000000000815260040161122490612971565b60405180910390fd5b80600660008481526020019081526020016000209080519060200190611254929190611c9c565b505050565b60006002600083815260200190815260200160002060009054906101000a900473ffffffffffffffffffffffffffffffffffffffff169050919050565b8173ffffffffffffffffffffffffffffffffffffffff168373ffffffffffffffffffffffffffffffffffffffff161415611305576040517f08c379a00000000000000000000000000000000000000000000000000000000081526004016112fc906129dd565b60405180910390fd5b80600560008573ffffffffffffffffffffffffffffffffffffffff1673ffffffffffffffffffffffffffffffffffffffff16815260200190815260200160002060008473ffffffffffffffffffffffffffffffffffffffff1673ffffffffffffffffffffffffffffffffffffffff16815260200190815260200160002060006101000a81548160ff0219169083151502179055508173ffffffffffffffffffffffffffffffffffffffff168373ffffffffffffffffffffffffffffffffffffffff167f17307eab39ab6107e8899845ad3d59bd9653f200f220920489ca2b5937696c31836040516113f69190611df3565b60405180910390a3505050565b61140e848484610ea9565b61141a8484848461161a565b611459576040517f08c379a000000000000000000000000000000000000000000000000000000000815260040161145090612a6f565b60405180910390fd5b50505050565b606061146a82610d08565b600060066000848152602001908152602001600020805461148a90612473565b80601f01602080910402602001604051908101604052809291908181526020018280546114b690612473565b80156115035780601f106114d857610100808354040283529160200191611503565b820191906000526020600020905b8154815290600101906020018083116114e657829003601f168201915b5050505050905060006115146117b1565b905060008151141561152a57819250505061156d565b60008251111561155f578082604051602001611547929190612a8f565b6040516020818303038152906040529250505061156d565b611568846117c8565b925050505b919050565b60008073ffffffffffffffffffffffffffffffffffffffff1661159483611259565b73ffffffffffffffffffffffffffffffffffffffff1614159050919050565b50505050565b50505050565b6115c98383611830565b6115d6600084848461161a565b611615576040517f08c379a000000000000000000000000000000000000000000000000000000000815260040161160c90612a6f565b60405180910390fd5b505050565b600061163b8473ffffffffffffffffffffffffffffffffffffffff16611a4e565b156117a4578373ffffffffffffffffffffffffffffffffffffffff1663150b7a02611664610d53565b8786866040518563ffffffff1660e01b81526004016116869493929190612b08565b602060405180830381600087803b1580156116a057600080fd5b505af19250505080156116d157506040513d601f19601f820116820180604052508101906116ce9190612b69565b60015b611754573d8060008114611701576040519150601f19603f3d011682016040523d82523d6000602084013e611706565b606091505b5060008151141561174c576040517f08c379a000000000000000000000000000000000000000000000000000000000815260040161174390612a6f565b60405180910390fd5b805181602001fd5b63150b7a0260e01b7bffffffffffffffffffffffffffffffffffffffffffffffffffffffff1916817bffffffffffffffffffffffffffffffffffffffffffffffffffffffff1916149150506117a9565b600190505b949350505050565b606060405180602001604052806000815250905090565b60606117d382610d08565b60006117dd6117b1565b905060008151116117fd5760405180602001604052806000815250611828565b8061180784611a71565b604051602001611818929190612a8f565b6040516020818303038152906040525b915050919050565b600073ffffffffffffffffffffffffffffffffffffffff168273ffffffffffffffffffffffffffffffffffffffff1614156118a0576040517f08c379a000000000000000000000000000000000000000000000000000000000815260040161189790612be2565b60405180910390fd5b6118a981611572565b156118e9576040517f08c379a00000000000000000000000000000000000000000000000000000000081526004016118e090612c4e565b60405180910390fd5b6118f76000838360016115b3565b61190081611572565b15611940576040517f08c379a000000000000000000000000000000000000000000000000000000000815260040161193790612c4e565b60405180910390fd5b6001600360008473ffffffffffffffffffffffffffffffffffffffff1673ffffffffffffffffffffffffffffffffffffffff16815260200190815260200160002060008282540192505081905550816002600083815260200190815260200160002060006101000a81548173ffffffffffffffffffffffffffffffffffffffff021916908373ffffffffffffffffffffffffffffffffffffffff160217905550808273ffffffffffffffffffffffffffffffffffffffff16600073ffffffffffffffffffffffffffffffffffffffff167fddf252ad1be2c89b69c2b068fc378daa952ba7f163c4a11628f55a4df523b3ef60405160405180910390a4611a4a6000838360016115b9565b5050565b6000808273ffffffffffffffffffffffffffffffffffffffff163b119050919050565b606060006001611a8084611b49565b01905060008167ffffffffffffffff811115611a9f57611a9e61213d565b5b6040519080825280601f01601f191660200182016040528015611ad15781602001600182028036833780820191505090505b509050600082602001820190505b600115611b3e578080600190039150507f3031323334353637383961626364656600000000000000000000000000000000600a86061a8153600a8581611b2857611b27612c6e565b5b0494506000851415611b3957611b3e565b611adf565b819350505050919050565b600080600090507a184f03e93ff9f4daa797ed6e38ed64bf6a1f0100000000000000008310611ba7577a184f03e93ff9f4daa797ed6e38ed64bf6a1f0100000000000000008381611b9d57611b9c612c6e565b5b0492506040810190505b6d04ee2d6d415b85acef81000000008310611be4576d04ee2d6d415b85acef81000000008381611bda57611bd9612c6e565b5b0492506020810190505b662386f26fc100008310611c1357662386f26fc100008381611c0957611c08612c6e565b5b0492506010810190505b6305f5e1008310611c3c576305f5e1008381611c3257611c31612c6e565b5b0492506008810190505b6127108310611c61576127108381611c5757611c56612c6e565b5b0492506004810190505b60648310611c845760648381611c7a57611c79612c6e565b5b0492506002810190505b600a8310611c93576001810190505b80915050919050565b828054611ca890612473565b90600052602060002090601f016020900481019282611cca5760008555611d11565b82601f10611ce357805160ff1916838001178555611d11565b82800160010185558215611d11579182015b82811115611d10578251825591602001919060010190611cf5565b5b509050611d1e9190611d22565b5090565b5b80821115611d3b576000816000905550600101611d23565b5090565b6000604051905090565b600080fd5b600080fd5b60007fffffffff0000000000000000000000000000000000000000000000000000000082169050919050565b611d8881611d53565b8114611d9357600080fd5b50565b600081359050611da581611d7f565b92915050565b600060208284031215611dc157611dc0611d49565b5b6000611dcf84828501611d96565b91505092915050565b60008115159050919050565b611ded81611dd8565b82525050565b6000602082019050611e086000830184611de4565b92915050565b600081519050919050565b600082825260208201905092915050565b60005b83811015611e48578082015181840152602081019050611e2d565b83811115611e57576000848401525b50505050565b6000601f19601f8301169050919050565b6000611e7982611e0e565b611e838185611e19565b9350611e93818560208601611e2a565b611e9c81611e5d565b840191505092915050565b60006020820190508181036000830152611ec18184611e6e565b905092915050565b6000819050919050565b611edc81611ec9565b8114611ee757600080fd5b50565b600081359050611ef981611ed3565b92915050565b600060208284031215611f1557611f14611d49565b5b6000611f2384828501611eea565b91505092915050565b600073ffffffffffffffffffffffffffffffffffffffff82169050919050565b6000611f5782611f2c565b9050919050565b611f6781611f4c565b82525050565b6000602082019050611f826000830184611f5e565b92915050565b611f9181611f4c565b8114611f9c57600080fd5b50565b600081359050611fae81611f88565b92915050565b60008060408385031215611fcb57611fca611d49565b5b6000611fd985828601611f9f565b9250506020611fea85828601611eea565b9150509250929050565b60008060006060848603121561200d5761200c611d49565b5b600061201b86828701611f9f565b935050602061202c86828701611f9f565b925050604061203d86828701611eea565b9150509250925092565b60006020828403121561205d5761205c611d49565b5b600061206b84828501611f9f565b91505092915050565b61207d81611ec9565b82525050565b60006040820190506120986000830185611f5e565b6120a56020830184612074565b9392505050565b60006020820190506120c16000830184612074565b92915050565b6120d081611dd8565b81146120db57600080fd5b50565b6000813590506120ed816120c7565b92915050565b6000806040838503121561210a57612109611d49565b5b600061211885828601611f9f565b9250506020612129858286016120de565b9150509250929050565b600080fd5b600080fd5b7f4e487b7100000000000000000000000000000000000000000000000000000000600052604160045260246000fd5b61217582611e5d565b810181811067ffffffffffffffff821117156121945761219361213d565b5b80604052505050565b60006121a7611d3f565b90506121b3828261216c565b919050565b600067ffffffffffffffff8211156121d3576121d261213d565b5b6121dc82611e5d565b9050602081019050919050565b82818337600083830152505050565b600061220b612206846121b8565b61219d565b90508281526020810184848401111561222757612226612138565b5b6122328482856121e9565b509392505050565b600082601f83011261224f5761224e612133565b5b813561225f8482602086016121f8565b91505092915050565b6000806000806080858703121561228257612281611d49565b5b600061229087828801611f9f565b94505060206122a187828801611f9f565b93505060406122b287828801611eea565b925050606085013567ffffffffffffffff8111156122d3576122d2611d4e565b5b6122df8782880161223a565b91505092959194509250565b600067ffffffffffffffff8211156123065761230561213d565b5b61230f82611e5d565b9050602081019050919050565b600061232f61232a846122eb565b61219d565b90508281526020810184848401111561234b5761234a612138565b5b6123568482856121e9565b509392505050565b600082601f83011261237357612372612133565b5b813561238384826020860161231c565b91505092915050565b600080604083850312156123a3576123a2611d49565b5b600083013567ffffffffffffffff8111156123c1576123c0611d4e565b5b6123cd8582860161235e565b925050602083013567ffffffffffffffff8111156123ee576123ed611d4e565b5b6123fa8582860161235e565b9150509250929050565b6000806040838503121561241b5761241a611d49565b5b600061242985828601611f9f565b925050602061243a85828601611f9f565b9150509250929050565b7f4e487b7100000000000000000000000000000000000000000000000000000000600052602260045260246000fd5b6000600282049050600182168061248b57607f821691505b6020821081141561249f5761249e612444565b5b50919050565b7f4552433732313a20617070726f76616c20746f2063757272656e74206f776e6560008201527f7200000000000000000000000000000000000000000000000000000000000000602082015250565b6000612501602183611e19565b915061250c826124a5565b604082019050919050565b60006020820190508181036000830152612530816124f4565b9050919050565b7f4552433732313a20617070726f76652063616c6c6572206973206e6f7420746f60008201527f6b656e206f776e6572206f7220617070726f76656420666f7220616c6c000000602082015250565b6000612593603d83611e19565b915061259e82612537565b604082019050919050565b600060208201905081810360008301526125c281612586565b9050919050565b7f4552433732313a2063616c6c6572206973206e6f7420746f6b656e206f776e6560008201527f72206f7220617070726f76656400000000000000000000000000000000000000602082015250565b6000612625602d83611e19565b9150612630826125c9565b604082019050919050565b6000602082019050818103600083015261265481612618565b9050919050565b7f4e487b7100000000000000000000000000000000000000000000000000000000600052603260045260246000fd5b7f4552433732313a20696e76616c696420746f6b656e2049440000000000000000600082015250565b60006126c0601883611e19565b91506126cb8261268a565b602082019050919050565b600060208201905081810360008301526126ef816126b3565b9050919050565b7f4552433732313a2061646472657373207a65726f206973206e6f74206120766160008201527f6c6964206f776e65720000000000000000000000000000000000000000000000602082015250565b6000612752602983611e19565b915061275d826126f6565b604082019050919050565b6000602082019050818103600083015261278181612745565b9050919050565b600081905092915050565b600061279e82611e0e565b6127a88185612788565b93506127b8818560208601611e2a565b80840191505092915050565b60006127d08284612793565b915081905092915050565b7f4552433732313a207472616e736665722066726f6d20696e636f72726563742060008201527f6f776e6572000000000000000000000000000000000000000000000000000000602082015250565b6000612837602583611e19565b9150612842826127db565b604082019050919050565b600060208201905081810360008301526128668161282a565b9050919050565b7f4552433732313a207472616e7366657220746f20746865207a65726f2061646460008201527f7265737300000000000000000000000000000000000000000000000000000000602082015250565b60006128c9602483611e19565b91506128d48261286d565b604082019050919050565b600060208201905081810360008301526128f8816128bc565b9050919050565b7f45524337323155524953746f726167653a2055524920736574206f66206e6f6e60008201527f6578697374656e7420746f6b656e000000000000000000000000000000000000602082015250565b600061295b602e83611e19565b9150612966826128ff565b604082019050919050565b6000602082019050818103600083015261298a8161294e565b9050919050565b7f4552433732313a20617070726f766520746f2063616c6c657200000000000000600082015250565b60006129c7601983611e19565b91506129d282612991565b602082019050919050565b600060208201905081810360008301526129f6816129ba565b9050919050565b7f4552433732313a207472616e7366657220746f206e6f6e20455243373231526560008201527f63656976657220696d706c656d656e7465720000000000000000000000000000602082015250565b6000612a59603283611e19565b9150612a64826129fd565b604082019050919050565b60006020820190508181036000830152612a8881612a4c565b9050919050565b6000612a9b8285612793565b9150612aa78284612793565b91508190509392505050565b600081519050919050565b600082825260208201905092915050565b6000612ada82612ab3565b612ae48185612abe565b9350612af4818560208601611e2a565b612afd81611e5d565b840191505092915050565b6000608082019050612b1d6000830187611f5e565b612b2a6020830186611f5e565b612b376040830185612074565b8181036060830152612b498184612acf565b905095945050505050565b600081519050612b6381611d7f565b92915050565b600060208284031215612b7f57612b7e611d49565b5b6000612b8d84828501612b54565b91505092915050565b7f4552433732313a206d696e7420746f20746865207a65726f2061646472657373600082015250565b6000612bcc602083611e19565b9150612bd782612b96565b602082019050919050565b60006020820190508181036000830152612bfb81612bbf565b9050919050565b7f4552433732313a20746f6b656e20616c7265616479206d696e74656400000000600082015250565b6000612c38601c83611e19565b9150612c4382612c02565b602082019050919050565b60006020820190508181036000830152612c6781612c2b565b9050919050565b7f4e487b7100000000000000000000000000000000000000000000000000000000600052601260045260246000fdfea2646970667358221220b2c6937a3543869c75b2473c745be99f20f88bc081629f8c1ebcbfe50d38932b64736f6c6343000809003368747470733a2f2f697066732e696f2f697066732f516d59615473797854446e724734746f6338373231773632724c345a424b585154476a396339527064726e746f752f636572746966696361646f2e6a736f6e",
  "linkReferences": {},
  "deployedLinkReferences": {}
}