{
  "_format": "hh-sol-artifact-1",
  "contractName": "Talkaway1155",
  "sourceName": "contracts/Talkaway1155.sol",
  "abi": [
    {
      "inputs": [],
      "stateMutability": "nonpayable",
      "type": "constructor"
    },
    {
      "anonymous": false,
      "inputs": [
        {
          "indexed": true,
          "internalType": "address",
          "name": "account",
          "type": "address"
        },
        {
          "indexed": true,
          "internalType": "address",
          "name": "operator",
          "type": "address"
        },
        {
          "indexed": false,
          "internalType": "bool",
          "name": "approved",
          "type": "bool"
        }
      ],
      "name": "ApprovalForAll",
      "type": "event"
    },
    {
      "anonymous": false,
      "inputs": [
        {
          "indexed": true,
          "internalType": "address",
          "name": "operator",
          "type": "address"
        },
        {
          "indexed": true,
          "internalType": "address",
          "name": "from",
          "type": "address"
        },
        {
          "indexed": true,
          "internalType": "address",
          "name": "to",
          "type": "address"
        },
        {
          "indexed": false,
          "internalType": "uint256[]",
          "name": "ids",
          "type": "uint256[]"
        },
        {
          "indexed": false,
          "internalType": "uint256[]",
          "name": "values",
          "type": "uint256[]"
        }
      ],
      "name": "TransferBatch",
      "type": "event"
    },
    {
      "anonymous": false,
      "inputs": [
        {
          "indexed": true,
          "internalType": "address",
          "name": "operator",
          "type": "address"
        },
        {
          "indexed": true,
          "internalType": "address",
          "name": "from",
          "type": "address"
        },
        {
          "indexed": true,
          "internalType": "address",
          "name": "to",
          "type": "address"
        },
        {
          "indexed": false,
          "internalType": "uint256",
          "name": "id",
          "type": "uint256"
        },
        {
          "indexed": false,
          "internalType": "uint256",
          "name": "value",
          "type": "uint256"
        }
      ],
      "name": "TransferSingle",
      "type": "event"
    },
    {
      "anonymous": false,
      "inputs": [
        {
          "indexed": false,
          "internalType": "string",
          "name": "value",
          "type": "string"
        },
        {
          "indexed": true,
          "internalType": "uint256",
          "name": "id",
          "type": "uint256"
        }
      ],
      "name": "URI",
      "type": "event"
    },
    {
      "inputs": [],
      "name": "atualizaTokenCheckin",
      "outputs": [],
      "stateMutability": "nonpayable",
      "type": "function"
    },
    {
      "inputs": [
        {
          "internalType": "address",
          "name": "account",
          "type": "address"
        },
        {
          "internalType": "uint256",
          "name": "id",
          "type": "uint256"
        }
      ],
      "name": "balanceOf",
      "outputs": [
        {
          "internalType": "uint256",
          "name": "",
          "type": "uint256"
        }
      ],
      "stateMutability": "view",
      "type": "function"
    },
    {
      "inputs": [
        {
          "internalType": "address[]",
          "name": "accounts",
          "type": "address[]"
        },
        {
          "internalType": "uint256[]",
          "name": "ids",
          "type": "uint256[]"
        }
      ],
      "name": "balanceOfBatch",
      "outputs": [
        {
          "internalType": "uint256[]",
          "name": "",
          "type": "uint256[]"
        }
      ],
      "stateMutability": "view",
      "type": "function"
    },
    {
      "inputs": [],
      "name": "getAluno",
      "outputs": [
        {
          "internalType": "address",
          "name": "",
          "type": "address"
        }
      ],
      "stateMutability": "view",
      "type": "function"
    },
    {
      "inputs": [],
      "name": "getLocalizaco",
      "outputs": [
        {
          "internalType": "string",
          "name": "",
          "type": "string"
        }
      ],
      "stateMutability": "view",
      "type": "function"
    },
    {
      "inputs": [],
      "name": "getTutor",
      "outputs": [
        {
          "internalType": "address",
          "name": "",
          "type": "address"
        }
      ],
      "stateMutability": "view",
      "type": "function"
    },
    {
      "inputs": [
        {
          "internalType": "address",
          "name": "account",
          "type": "address"
        },
        {
          "internalType": "address",
          "name": "operator",
          "type": "address"
        }
      ],
      "name": "isApprovedForAll",
      "outputs": [
        {
          "internalType": "bool",
          "name": "",
          "type": "bool"
        }
      ],
      "stateMutability": "view",
      "type": "function"
    },
    {
      "inputs": [
        {
          "internalType": "address",
          "name": "account",
          "type": "address"
        },
        {
          "internalType": "uint256",
          "name": "id",
          "type": "uint256"
        },
        {
          "internalType": "uint256",
          "name": "amount",
          "type": "uint256"
        },
        {
          "internalType": "bytes",
          "name": "data",
          "type": "bytes"
        }
      ],
      "name": "mint",
      "outputs": [],
      "stateMutability": "nonpayable",
      "type": "function"
    },
    {
      "inputs": [
        {
          "internalType": "address",
          "name": "to",
          "type": "address"
        },
        {
          "internalType": "uint256[]",
          "name": "ids",
          "type": "uint256[]"
        },
        {
          "internalType": "uint256[]",
          "name": "amounts",
          "type": "uint256[]"
        },
        {
          "internalType": "bytes",
          "name": "data",
          "type": "bytes"
        }
      ],
      "name": "mintBatch",
      "outputs": [],
      "stateMutability": "nonpayable",
      "type": "function"
    },
    {
      "inputs": [
        {
          "internalType": "address",
          "name": "_aluno",
          "type": "address"
        },
        {
          "internalType": "address",
          "name": "_tutor",
          "type": "address"
        },
        {
          "internalType": "string",
          "name": "_localizacao",
          "type": "string"
        }
      ],
      "name": "novaCaminhada",
      "outputs": [],
      "stateMutability": "nonpayable",
      "type": "function"
    },
    {
      "inputs": [
        {
          "internalType": "address",
          "name": "from",
          "type": "address"
        },
        {
          "internalType": "address",
          "name": "to",
          "type": "address"
        },
        {
          "internalType": "uint256[]",
          "name": "ids",
          "type": "uint256[]"
        },
        {
          "internalType": "uint256[]",
          "name": "amounts",
          "type": "uint256[]"
        },
        {
          "internalType": "bytes",
          "name": "data",
          "type": "bytes"
        }
      ],
      "name": "safeBatchTransferFrom",
      "outputs": [],
      "stateMutability": "nonpayable",
      "type": "function"
    },
    {
      "inputs": [
        {
          "internalType": "address",
          "name": "from",
          "type": "address"
        },
        {
          "internalType": "address",
          "name": "to",
          "type": "address"
        },
        {
          "internalType": "uint256",
          "name": "id",
          "type": "uint256"
        },
        {
          "internalType": "uint256",
          "name": "amount",
          "type": "uint256"
        },
        {
          "internalType": "bytes",
          "name": "data",
          "type": "bytes"
        }
      ],
      "name": "safeTransferFrom",
      "outputs": [],
      "stateMutability": "nonpayable",
      "type": "function"
    },
    {
      "inputs": [
        {
          "internalType": "address",
          "name": "operator",
          "type": "address"
        },
        {
          "internalType": "bool",
          "name": "approved",
          "type": "bool"
        }
      ],
      "name": "setApprovalForAll",
      "outputs": [],
      "stateMutability": "nonpayable",
      "type": "function"
    },
    {
      "inputs": [
        {
          "internalType": "string",
          "name": "newuri",
          "type": "string"
        }
      ],
      "name": "setURI",
      "outputs": [],
      "stateMutability": "nonpayable",
      "type": "function"
    },
    {
      "inputs": [
        {
          "internalType": "bytes4",
          "name": "interfaceId",
          "type": "bytes4"
        }
      ],
      "name": "supportsInterface",
      "outputs": [
        {
          "internalType": "bool",
          "name": "",
          "type": "bool"
        }
      ],
      "stateMutability": "view",
      "type": "function"
    },
    {
      "inputs": [],
      "name": "tokenIdCounter",
      "outputs": [
        {
          "internalType": "uint256",
          "name": "_value",
          "type": "uint256"
        }
      ],
      "stateMutability": "view",
      "type": "function"
    },
    {
      "inputs": [
        {
          "internalType": "uint256",
          "name": "",
          "type": "uint256"
        }
      ],
      "name": "uri",
      "outputs": [
        {
          "internalType": "string",
          "name": "",
          "type": "string"
        }
      ],
      "stateMutability": "view",
      "type": "function"
    }
  ],
  "bytecode": "0x608060405260405180604001604052806040518060800160405280604d815260200162003c53604d9139815260200160405180608001604052806056815260200162003bfd6056913981525060049060026200005d929190620000d6565b503480156200006b57600080fd5b506040518060400160405280601e81526020017f54616c6b61776179204c616e6775616765202d2043616d696e68616461730000815250620000b381620000ba60201b60201c565b50620002c0565b8060029080519060200190620000d29291906200013d565b5050565b8280548282559060005260206000209081019282156200012a579160200282015b8281111562000129578251829080519060200190620001189291906200013d565b5091602001919060010190620000f7565b5b509050620001399190620001ce565b5090565b8280546200014b906200028a565b90600052602060002090601f0160209004810192826200016f5760008555620001bb565b82601f106200018a57805160ff1916838001178555620001bb565b82800160010185558215620001bb579182015b82811115620001ba5782518255916020019190600101906200019d565b5b509050620001ca9190620001f6565b5090565b5b80821115620001f25760008181620001e8919062000215565b50600101620001cf565b5090565b5b8082111562000211576000816000905550600101620001f7565b5090565b50805462000223906200028a565b6000825580601f1062000237575062000258565b601f016020900490600052602060002090810190620002579190620001f6565b5b50565b7f4e487b7100000000000000000000000000000000000000000000000000000000600052602260045260246000fd5b60006002820490506001821680620002a357607f821691505b60208210811415620002ba57620002b96200025b565b5b50919050565b61392d80620002d06000396000f3fe608060405234801561001057600080fd5b506004361061010a5760003560e01c80636df1b670116100a2578063a22cb46511610071578063a22cb465146102b7578063bed1f910146102d3578063dbf926cb146102ef578063e985e9c5146102f9578063f242432a146103295761010a565b80636df1b67014610241578063731133e91461025f5780637c1530591461027b57806398bdf6f5146102995761010a565b80631f7fdffa116100de5780631f7fdffa146101bb5780632eb2c2d6146101d75780634e1273f4146101f3578063541f5366146102235761010a565b8062fdd58e1461010f57806301ffc9a71461013f57806302fe53051461016f5780630e89341c1461018b575b600080fd5b61012960048036038101906101249190611eca565b610345565b6040516101369190611f19565b60405180910390f35b61015960048036038101906101549190611f8c565b61040e565b6040516101669190611fd4565b60405180910390f35b61018960048036038101906101849190612135565b6104f0565b005b6101a560048036038101906101a0919061217e565b6105a3565b6040516101b29190612233565b60405180910390f35b6101d560048036038101906101d091906123be565b610637565b005b6101f160048036038101906101ec9190612479565b610649565b005b61020d6004803603810190610208919061260b565b6106ea565b60405161021a9190612741565b60405180910390f35b61022b610803565b6040516102389190612772565b60405180910390f35b61024961082d565b6040516102569190612772565b60405180910390f35b6102796004803603810190610274919061278d565b610857565b005b610283610869565b6040516102909190612233565b60405180910390f35b6102a16108fb565b6040516102ae9190611f19565b60405180910390f35b6102d160048036038101906102cc919061283c565b610907565b005b6102ed60048036038101906102e8919061287c565b61091d565b005b6102f7610c04565b005b610313600480360381019061030e91906128eb565b610c2c565b6040516103209190611fd4565b60405180910390f35b610343600480360381019061033e919061292b565b610cc0565b005b60008073ffffffffffffffffffffffffffffffffffffffff168373ffffffffffffffffffffffffffffffffffffffff1614156103b6576040517f08c379a00000000000000000000000000000000000000000000000000000000081526004016103ad90612a34565b60405180910390fd5b60008083815260200190815260200160002060008473ffffffffffffffffffffffffffffffffffffffff1673ffffffffffffffffffffffffffffffffffffffff16815260200190815260200160002054905092915050565b60007fd9b67a26000000000000000000000000000000000000000000000000000000007bffffffffffffffffffffffffffffffffffffffffffffffffffffffff1916827bffffffffffffffffffffffffffffffffffffffffffffffffffffffff191614806104d957507f0e89341c000000000000000000000000000000000000000000000000000000007bffffffffffffffffffffffffffffffffffffffffffffffffffffffff1916827bffffffffffffffffffffffffffffffffffffffffffffffffffffffff1916145b806104e957506104e882610d61565b5b9050919050565b6105a0600460018154811061050857610507612a54565b5b90600052602060002001805461051d90612ab2565b80601f016020809104026020016040519081016040528092919081815260200182805461054990612ab2565b80156105965780601f1061056b57610100808354040283529160200191610596565b820191906000526020600020905b81548152906001019060200180831161057957829003601f168201915b5050505050610dcb565b50565b6060600280546105b290612ab2565b80601f01602080910402602001604051908101604052809291908181526020018280546105de90612ab2565b801561062b5780601f106106005761010080835404028352916020019161062b565b820191906000526020600020905b81548152906001019060200180831161060e57829003601f168201915b50505050509050919050565b61064384848484610de5565b50505050565b610651611012565b73ffffffffffffffffffffffffffffffffffffffff168573ffffffffffffffffffffffffffffffffffffffff161480610697575061069685610691611012565b610c2c565b5b6106d6576040517f08c379a00000000000000000000000000000000000000000000000000000000081526004016106cd90612b56565b60405180910390fd5b6106e3858585858561101a565b5050505050565b60608151835114610730576040517f08c379a000000000000000000000000000000000000000000000000000000000815260040161072790612be8565b60405180910390fd5b6000835167ffffffffffffffff81111561074d5761074c61200a565b5b60405190808252806020026020018201604052801561077b5781602001602082028036833780820191505090505b50905060005b84518110156107f8576107c88582815181106107a05761079f612a54565b5b60200260200101518583815181106107bb576107ba612a54565b5b6020026020010151610345565b8282815181106107db576107da612a54565b5b602002602001018181525050806107f190612c37565b9050610781565b508091505092915050565b6000600660009054906101000a900473ffffffffffffffffffffffffffffffffffffffff16905090565b6000600560009054906101000a900473ffffffffffffffffffffffffffffffffffffffff16905090565b6108638484848461133c565b50505050565b60606007805461087890612ab2565b80601f01602080910402602001604051908101604052809291908181526020018280546108a490612ab2565b80156108f15780601f106108c6576101008083540402835291602001916108f1565b820191906000526020600020905b8154815290600101906020018083116108d457829003601f168201915b5050505050905090565b60038060000154905081565b610919610912611012565b83836114ed565b5050565b600860405180608001604052808573ffffffffffffffffffffffffffffffffffffffff1681526020018473ffffffffffffffffffffffffffffffffffffffff1681526020018381526020016040518060400160405280600781526020017f636865636b696e00000000000000000000000000000000000000000000000000815250815250908060018154018082558091505060019003906000526020600020906004020160009091909190915060008201518160000160006101000a81548173ffffffffffffffffffffffffffffffffffffffff021916908373ffffffffffffffffffffffffffffffffffffffff16021790555060208201518160010160006101000a81548173ffffffffffffffffffffffffffffffffffffffff021916908373ffffffffffffffffffffffffffffffffffffffff1602179055506040820151816002019080519060200190610a74929190611d7f565b506060820151816003019080519060200190610a91929190611d7f565b5050506000610aa0600361165a565b9050610b526004600081548110610aba57610ab9612a54565b5b906000526020600020018054610acf90612ab2565b80601f0160208091040260200160405190810160405280929190818152602001828054610afb90612ab2565b8015610b485780601f10610b1d57610100808354040283529160200191610b48565b820191906000526020600020905b815481529060010190602001808311610b2b57829003601f168201915b50505050506104f0565b610ba28482600160088581548110610b6d57610b6c612a54565b5b9060005260206000209060040201600301604051602001610b8e9190612f59565b60405160208183030381529060405261133c565b610bac600361165a565b9050610bfe8382600160088581548110610bc957610bc8612a54565b5b9060005260206000209060040201600301604051602001610bea9190613009565b60405160208183030381529060405261133c565b50505050565b610c2a604051602001610c16906131c3565b6040516020818303038152906040526104f0565b565b6000600160008473ffffffffffffffffffffffffffffffffffffffff1673ffffffffffffffffffffffffffffffffffffffff16815260200190815260200160002060008373ffffffffffffffffffffffffffffffffffffffff1673ffffffffffffffffffffffffffffffffffffffff16815260200190815260200160002060009054906101000a900460ff16905092915050565b610cc8611012565b73ffffffffffffffffffffffffffffffffffffffff168573ffffffffffffffffffffffffffffffffffffffff161480610d0e5750610d0d85610d08611012565b610c2c565b5b610d4d576040517f08c379a0000000000000000000000000000000000000000000000000000000008152600401610d4490612b56565b60405180910390fd5b610d5a8585858585611668565b5050505050565b60007f01ffc9a7000000000000000000000000000000000000000000000000000000007bffffffffffffffffffffffffffffffffffffffffffffffffffffffff1916827bffffffffffffffffffffffffffffffffffffffffffffffffffffffff1916149050919050565b8060029080519060200190610de1929190611d7f565b5050565b600073ffffffffffffffffffffffffffffffffffffffff168473ffffffffffffffffffffffffffffffffffffffff161415610e55576040517f08c379a0000000000000000000000000000000000000000000000000000000008152600401610e4c90613297565b60405180910390fd5b8151835114610e99576040517f08c379a0000000000000000000000000000000000000000000000000000000008152600401610e9090613329565b60405180910390fd5b6000610ea3611012565b9050610eb481600087878787611904565b60005b8451811015610f6d57838181518110610ed357610ed2612a54565b5b6020026020010151600080878481518110610ef157610ef0612a54565b5b6020026020010151815260200190815260200160002060008873ffffffffffffffffffffffffffffffffffffffff1673ffffffffffffffffffffffffffffffffffffffff1681526020019081526020016000206000828254610f539190613349565b925050819055508080610f6590612c37565b915050610eb7565b508473ffffffffffffffffffffffffffffffffffffffff16600073ffffffffffffffffffffffffffffffffffffffff168273ffffffffffffffffffffffffffffffffffffffff167f4a39dc06d4c0dbc64b70af90fd698a233a518aa5d07e595d983b8c0526c8f7fb8787604051610fe592919061339f565b60405180910390a4610ffc8160008787878761190c565b61100b81600087878787611914565b5050505050565b600033905090565b815183511461105e576040517f08c379a000000000000000000000000000000000000000000000000000000000815260040161105590613329565b60405180910390fd5b600073ffffffffffffffffffffffffffffffffffffffff168473ffffffffffffffffffffffffffffffffffffffff1614156110ce576040517f08c379a00000000000000000000000000000000000000000000000000000000081526004016110c590613448565b60405180910390fd5b60006110d8611012565b90506110e8818787878787611904565b60005b845181101561129957600085828151811061110957611108612a54565b5b60200260200101519050600085838151811061112857611127612a54565b5b60200260200101519050600080600084815260200190815260200160002060008b73ffffffffffffffffffffffffffffffffffffffff1673ffffffffffffffffffffffffffffffffffffffff168152602001908152602001600020549050818110156111c9576040517f08c379a00000000000000000000000000000000000000000000000000000000081526004016111c0906134da565b60405180910390fd5b81810360008085815260200190815260200160002060008c73ffffffffffffffffffffffffffffffffffffffff1673ffffffffffffffffffffffffffffffffffffffff168152602001908152602001600020819055508160008085815260200190815260200160002060008b73ffffffffffffffffffffffffffffffffffffffff1673ffffffffffffffffffffffffffffffffffffffff168152602001908152602001600020600082825461127e9190613349565b925050819055505050508061129290612c37565b90506110eb565b508473ffffffffffffffffffffffffffffffffffffffff168673ffffffffffffffffffffffffffffffffffffffff168273ffffffffffffffffffffffffffffffffffffffff167f4a39dc06d4c0dbc64b70af90fd698a233a518aa5d07e595d983b8c0526c8f7fb878760405161131092919061339f565b60405180910390a461132681878787878761190c565b611334818787878787611914565b505050505050565b600073ffffffffffffffffffffffffffffffffffffffff168473ffffffffffffffffffffffffffffffffffffffff1614156113ac576040517f08c379a00000000000000000000000000000000000000000000000000000000081526004016113a390613297565b60405180910390fd5b60006113b6611012565b905060006113c385611afb565b905060006113d085611afb565b90506113e183600089858589611904565b8460008088815260200190815260200160002060008973ffffffffffffffffffffffffffffffffffffffff1673ffffffffffffffffffffffffffffffffffffffff16815260200190815260200160002060008282546114409190613349565b925050819055508673ffffffffffffffffffffffffffffffffffffffff16600073ffffffffffffffffffffffffffffffffffffffff168473ffffffffffffffffffffffffffffffffffffffff167fc3d58168c5ae7397731d063d5bbf3d657854427343f4c083240f7aacaa2d0f6289896040516114be9291906134fa565b60405180910390a46114d58360008985858961190c565b6114e483600089898989611b75565b50505050505050565b8173ffffffffffffffffffffffffffffffffffffffff168373ffffffffffffffffffffffffffffffffffffffff16141561155c576040517f08c379a000000000000000000000000000000000000000000000000000000000815260040161155390613595565b60405180910390fd5b80600160008573ffffffffffffffffffffffffffffffffffffffff1673ffffffffffffffffffffffffffffffffffffffff16815260200190815260200160002060008473ffffffffffffffffffffffffffffffffffffffff1673ffffffffffffffffffffffffffffffffffffffff16815260200190815260200160002060006101000a81548160ff0219169083151502179055508173ffffffffffffffffffffffffffffffffffffffff168373ffffffffffffffffffffffffffffffffffffffff167f17307eab39ab6107e8899845ad3d59bd9653f200f220920489ca2b5937696c318360405161164d9190611fd4565b60405180910390a3505050565b600081600001549050919050565b600073ffffffffffffffffffffffffffffffffffffffff168473ffffffffffffffffffffffffffffffffffffffff1614156116d8576040517f08c379a00000000000000000000000000000000000000000000000000000000081526004016116cf90613448565b60405180910390fd5b60006116e2611012565b905060006116ef85611afb565b905060006116fc85611afb565b905061170c838989858589611904565b600080600088815260200190815260200160002060008a73ffffffffffffffffffffffffffffffffffffffff1673ffffffffffffffffffffffffffffffffffffffff168152602001908152602001600020549050858110156117a3576040517f08c379a000000000000000000000000000000000000000000000000000000000815260040161179a906134da565b60405180910390fd5b85810360008089815260200190815260200160002060008b73ffffffffffffffffffffffffffffffffffffffff1673ffffffffffffffffffffffffffffffffffffffff168152602001908152602001600020819055508560008089815260200190815260200160002060008a73ffffffffffffffffffffffffffffffffffffffff1673ffffffffffffffffffffffffffffffffffffffff16815260200190815260200160002060008282546118589190613349565b925050819055508773ffffffffffffffffffffffffffffffffffffffff168973ffffffffffffffffffffffffffffffffffffffff168573ffffffffffffffffffffffffffffffffffffffff167fc3d58168c5ae7397731d063d5bbf3d657854427343f4c083240f7aacaa2d0f628a8a6040516118d59291906134fa565b60405180910390a46118eb848a8a86868a61190c565b6118f9848a8a8a8a8a611b75565b505050505050505050565b505050505050565b505050505050565b6119338473ffffffffffffffffffffffffffffffffffffffff16611d5c565b15611af3578373ffffffffffffffffffffffffffffffffffffffff1663bc197c8187878686866040518663ffffffff1660e01b815260040161197995949392919061360a565b602060405180830381600087803b15801561199357600080fd5b505af19250505080156119c457506040513d601f19601f820116820180604052508101906119c19190613687565b60015b611a6a576119d06136c1565b806308c379a01415611a2d57506119e56136e3565b806119f05750611a2f565b806040517f08c379a0000000000000000000000000000000000000000000000000000000008152600401611a249190612233565b60405180910390fd5b505b6040517f08c379a0000000000000000000000000000000000000000000000000000000008152600401611a61906137eb565b60405180910390fd5b63bc197c8160e01b7bffffffffffffffffffffffffffffffffffffffffffffffffffffffff1916817bffffffffffffffffffffffffffffffffffffffffffffffffffffffff191614611af1576040517f08c379a0000000000000000000000000000000000000000000000000000000008152600401611ae89061387d565b60405180910390fd5b505b505050505050565b60606000600167ffffffffffffffff811115611b1a57611b1961200a565b5b604051908082528060200260200182016040528015611b485781602001602082028036833780820191505090505b5090508281600081518110611b6057611b5f612a54565b5b60200260200101818152505080915050919050565b611b948473ffffffffffffffffffffffffffffffffffffffff16611d5c565b15611d54578373ffffffffffffffffffffffffffffffffffffffff1663f23a6e6187878686866040518663ffffffff1660e01b8152600401611bda95949392919061389d565b602060405180830381600087803b158015611bf457600080fd5b505af1925050508015611c2557506040513d601f19601f82011682018060405250810190611c229190613687565b60015b611ccb57611c316136c1565b806308c379a01415611c8e5750611c466136e3565b80611c515750611c90565b806040517f08c379a0000000000000000000000000000000000000000000000000000000008152600401611c859190612233565b60405180910390fd5b505b6040517f08c379a0000000000000000000000000000000000000000000000000000000008152600401611cc2906137eb565b60405180910390fd5b63f23a6e6160e01b7bffffffffffffffffffffffffffffffffffffffffffffffffffffffff1916817bffffffffffffffffffffffffffffffffffffffffffffffffffffffff191614611d52576040517f08c379a0000000000000000000000000000000000000000000000000000000008152600401611d499061387d565b60405180910390fd5b505b505050505050565b6000808273ffffffffffffffffffffffffffffffffffffffff163b119050919050565b828054611d8b90612ab2565b90600052602060002090601f016020900481019282611dad5760008555611df4565b82601f10611dc657805160ff1916838001178555611df4565b82800160010185558215611df4579182015b82811115611df3578251825591602001919060010190611dd8565b5b509050611e019190611e05565b5090565b5b80821115611e1e576000816000905550600101611e06565b5090565b6000604051905090565b600080fd5b600080fd5b600073ffffffffffffffffffffffffffffffffffffffff82169050919050565b6000611e6182611e36565b9050919050565b611e7181611e56565b8114611e7c57600080fd5b50565b600081359050611e8e81611e68565b92915050565b6000819050919050565b611ea781611e94565b8114611eb257600080fd5b50565b600081359050611ec481611e9e565b92915050565b60008060408385031215611ee157611ee0611e2c565b5b6000611eef85828601611e7f565b9250506020611f0085828601611eb5565b9150509250929050565b611f1381611e94565b82525050565b6000602082019050611f2e6000830184611f0a565b92915050565b60007fffffffff0000000000000000000000000000000000000000000000000000000082169050919050565b611f6981611f34565b8114611f7457600080fd5b50565b600081359050611f8681611f60565b92915050565b600060208284031215611fa257611fa1611e2c565b5b6000611fb084828501611f77565b91505092915050565b60008115159050919050565b611fce81611fb9565b82525050565b6000602082019050611fe96000830184611fc5565b92915050565b600080fd5b600080fd5b6000601f19601f8301169050919050565b7f4e487b7100000000000000000000000000000000000000000000000000000000600052604160045260246000fd5b61204282611ff9565b810181811067ffffffffffffffff821117156120615761206061200a565b5b80604052505050565b6000612074611e22565b90506120808282612039565b919050565b600067ffffffffffffffff8211156120a05761209f61200a565b5b6120a982611ff9565b9050602081019050919050565b82818337600083830152505050565b60006120d86120d384612085565b61206a565b9050828152602081018484840111156120f4576120f3611ff4565b5b6120ff8482856120b6565b509392505050565b600082601f83011261211c5761211b611fef565b5b813561212c8482602086016120c5565b91505092915050565b60006020828403121561214b5761214a611e2c565b5b600082013567ffffffffffffffff81111561216957612168611e31565b5b61217584828501612107565b91505092915050565b60006020828403121561219457612193611e2c565b5b60006121a284828501611eb5565b91505092915050565b600081519050919050565b600082825260208201905092915050565b60005b838110156121e55780820151818401526020810190506121ca565b838111156121f4576000848401525b50505050565b6000612205826121ab565b61220f81856121b6565b935061221f8185602086016121c7565b61222881611ff9565b840191505092915050565b6000602082019050818103600083015261224d81846121fa565b905092915050565b600067ffffffffffffffff8211156122705761226f61200a565b5b602082029050602081019050919050565b600080fd5b600061229961229484612255565b61206a565b905080838252602082019050602084028301858111156122bc576122bb612281565b5b835b818110156122e557806122d18882611eb5565b8452602084019350506020810190506122be565b5050509392505050565b600082601f83011261230457612303611fef565b5b8135612314848260208601612286565b91505092915050565b600067ffffffffffffffff8211156123385761233761200a565b5b61234182611ff9565b9050602081019050919050565b600061236161235c8461231d565b61206a565b90508281526020810184848401111561237d5761237c611ff4565b5b6123888482856120b6565b509392505050565b600082601f8301126123a5576123a4611fef565b5b81356123b584826020860161234e565b91505092915050565b600080600080608085870312156123d8576123d7611e2c565b5b60006123e687828801611e7f565b945050602085013567ffffffffffffffff81111561240757612406611e31565b5b612413878288016122ef565b935050604085013567ffffffffffffffff81111561243457612433611e31565b5b612440878288016122ef565b925050606085013567ffffffffffffffff81111561246157612460611e31565b5b61246d87828801612390565b91505092959194509250565b600080600080600060a0868803121561249557612494611e2c565b5b60006124a388828901611e7f565b95505060206124b488828901611e7f565b945050604086013567ffffffffffffffff8111156124d5576124d4611e31565b5b6124e1888289016122ef565b935050606086013567ffffffffffffffff81111561250257612501611e31565b5b61250e888289016122ef565b925050608086013567ffffffffffffffff81111561252f5761252e611e31565b5b61253b88828901612390565b9150509295509295909350565b600067ffffffffffffffff8211156125635761256261200a565b5b602082029050602081019050919050565b600061258761258284612548565b61206a565b905080838252602082019050602084028301858111156125aa576125a9612281565b5b835b818110156125d357806125bf8882611e7f565b8452602084019350506020810190506125ac565b5050509392505050565b600082601f8301126125f2576125f1611fef565b5b8135612602848260208601612574565b91505092915050565b6000806040838503121561262257612621611e2c565b5b600083013567ffffffffffffffff8111156126405761263f611e31565b5b61264c858286016125dd565b925050602083013567ffffffffffffffff81111561266d5761266c611e31565b5b612679858286016122ef565b9150509250929050565b600081519050919050565b600082825260208201905092915050565b6000819050602082019050919050565b6126b881611e94565b82525050565b60006126ca83836126af565b60208301905092915050565b6000602082019050919050565b60006126ee82612683565b6126f8818561268e565b93506127038361269f565b8060005b8381101561273457815161271b88826126be565b9750612726836126d6565b925050600181019050612707565b5085935050505092915050565b6000602082019050818103600083015261275b81846126e3565b905092915050565b61276c81611e56565b82525050565b60006020820190506127876000830184612763565b92915050565b600080600080608085870312156127a7576127a6611e2c565b5b60006127b587828801611e7f565b94505060206127c687828801611eb5565b93505060406127d787828801611eb5565b925050606085013567ffffffffffffffff8111156127f8576127f7611e31565b5b61280487828801612390565b91505092959194509250565b61281981611fb9565b811461282457600080fd5b50565b60008135905061283681612810565b92915050565b6000806040838503121561285357612852611e2c565b5b600061286185828601611e7f565b925050602061287285828601612827565b9150509250929050565b60008060006060848603121561289557612894611e2c565b5b60006128a386828701611e7f565b93505060206128b486828701611e7f565b925050604084013567ffffffffffffffff8111156128d5576128d4611e31565b5b6128e186828701612107565b9150509250925092565b6000806040838503121561290257612901611e2c565b5b600061291085828601611e7f565b925050602061292185828601611e7f565b9150509250929050565b600080600080600060a0868803121561294757612946611e2c565b5b600061295588828901611e7f565b955050602061296688828901611e7f565b945050604061297788828901611eb5565b935050606061298888828901611eb5565b925050608086013567ffffffffffffffff8111156129a9576129a8611e31565b5b6129b588828901612390565b9150509295509295909350565b7f455243313135353a2061646472657373207a65726f206973206e6f742061207660008201527f616c6964206f776e657200000000000000000000000000000000000000000000602082015250565b6000612a1e602a836121b6565b9150612a29826129c2565b604082019050919050565b60006020820190508181036000830152612a4d81612a11565b9050919050565b7f4e487b7100000000000000000000000000000000000000000000000000000000600052603260045260246000fd5b7f4e487b7100000000000000000000000000000000000000000000000000000000600052602260045260246000fd5b60006002820490506001821680612aca57607f821691505b60208210811415612ade57612add612a83565b5b50919050565b7f455243313135353a2063616c6c6572206973206e6f7420746f6b656e206f776e60008201527f6572206f7220617070726f766564000000000000000000000000000000000000602082015250565b6000612b40602e836121b6565b9150612b4b82612ae4565b604082019050919050565b60006020820190508181036000830152612b6f81612b33565b9050919050565b7f455243313135353a206163636f756e747320616e6420696473206c656e67746860008201527f206d69736d617463680000000000000000000000000000000000000000000000602082015250565b6000612bd26029836121b6565b9150612bdd82612b76565b604082019050919050565b60006020820190508181036000830152612c0181612bc5565b9050919050565b7f4e487b7100000000000000000000000000000000000000000000000000000000600052601160045260246000fd5b6000612c4282611e94565b91507fffffffffffffffffffffffffffffffffffffffffffffffffffffffffffffffff821415612c7557612c74612c08565b5b600182019050919050565b600081905092915050565b7f7b226e616d65223a202243616d696e68616461202d20416c756e6f222c000000600082015250565b6000612cc1601d83612c80565b9150612ccc82612c8b565b601d82019050919050565b7f226465736372697074696f6e223a20225468697320697320796f75722066656160008201527f7475726573222c00000000000000000000000000000000000000000000000000602082015250565b6000612d33602783612c80565b9150612d3e82612cd7565b602782019050919050565b7f2261747472696275746573223a205b0000000000000000000000000000000000600082015250565b6000612d7f600f83612c80565b9150612d8a82612d49565b600f82019050919050565b7f7b00000000000000000000000000000000000000000000000000000000000000600082015250565b6000612dcb600183612c80565b9150612dd682612d95565b600182019050919050565b7f2274726169745f74797065223a202265737461646f222c000000000000000000600082015250565b6000612e17601783612c80565b9150612e2282612de1565b601782019050919050565b7f2276616c7565223a200000000000000000000000000000000000000000000000600082015250565b6000612e63600983612c80565b9150612e6e82612e2d565b600982019050919050565b60008190508160005260206000209050919050565b60008154612e9b81612ab2565b612ea58186612c80565b94506001821660008114612ec05760018114612ed157612f04565b60ff19831686528186019350612f04565b612eda85612e79565b60005b83811015612efc57815481890152600182019150602081019050612edd565b838801955050505b50505092915050565b7f7d5d7d0000000000000000000000000000000000000000000000000000000000600082015250565b6000612f43600383612c80565b9150612f4e82612f0d565b600382019050919050565b6000612f6482612cb4565b9150612f6f82612d26565b9150612f7a82612d72565b9150612f8582612dbe565b9150612f9082612e0a565b9150612f9b82612e56565b9150612fa78284612e8e565b9150612fb282612f36565b915081905092915050565b7f7b226e616d65223a202243616d696e68616461202d205475746f72222c000000600082015250565b6000612ff3601d83612c80565b9150612ffe82612fbd565b601d82019050919050565b600061301482612fe6565b915061301f82612d26565b915061302a82612d72565b915061303582612dbe565b915061304082612e0a565b915061304b82612e56565b91506130578284612e8e565b915061306282612f36565b915081905092915050565b7f7b226e616d65223a202252756e6e65724e4654202d20445548222c0000000000600082015250565b60006130a3601b83612c80565b91506130ae8261306d565b601b82019050919050565b7f22696d616765223a202268747470733a2f2f697066732e696f2f697066732f5160008201527f6d526b713545654b4535774b41755a4e6a614446787471704c51503363464a5660208201527f56574e753373717934353275412f707572706c655f736565646c696e672e6a7060408201527f67222c2261747472696275746573223a205b0000000000000000000000000000606082015250565b6000613161607283612c80565b915061316c826130b9565b607282019050919050565b7f636865636b6f7574000000000000000000000000000000000000000000000000600082015250565b60006131ad600883612c80565b91506131b882613177565b600882019050919050565b60006131ce82613096565b91506131d982612d26565b91506131e482613154565b91506131ef82612dbe565b91506131fa82612e0a565b915061320582612e56565b9150613210826131a0565b915061321b82612f36565b9150819050919050565b7f455243313135353a206d696e7420746f20746865207a65726f2061646472657360008201527f7300000000000000000000000000000000000000000000000000000000000000602082015250565b60006132816021836121b6565b915061328c82613225565b604082019050919050565b600060208201905081810360008301526132b081613274565b9050919050565b7f455243313135353a2069647320616e6420616d6f756e7473206c656e6774682060008201527f6d69736d61746368000000000000000000000000000000000000000000000000602082015250565b60006133136028836121b6565b915061331e826132b7565b604082019050919050565b6000602082019050818103600083015261334281613306565b9050919050565b600061335482611e94565b915061335f83611e94565b9250827fffffffffffffffffffffffffffffffffffffffffffffffffffffffffffffffff0382111561339457613393612c08565b5b828201905092915050565b600060408201905081810360008301526133b981856126e3565b905081810360208301526133cd81846126e3565b90509392505050565b7f455243313135353a207472616e7366657220746f20746865207a65726f20616460008201527f6472657373000000000000000000000000000000000000000000000000000000602082015250565b60006134326025836121b6565b915061343d826133d6565b604082019050919050565b6000602082019050818103600083015261346181613425565b9050919050565b7f455243313135353a20696e73756666696369656e742062616c616e636520666f60008201527f72207472616e7366657200000000000000000000000000000000000000000000602082015250565b60006134c4602a836121b6565b91506134cf82613468565b604082019050919050565b600060208201905081810360008301526134f3816134b7565b9050919050565b600060408201905061350f6000830185611f0a565b61351c6020830184611f0a565b9392505050565b7f455243313135353a2073657474696e6720617070726f76616c2073746174757360008201527f20666f722073656c660000000000000000000000000000000000000000000000602082015250565b600061357f6029836121b6565b915061358a82613523565b604082019050919050565b600060208201905081810360008301526135ae81613572565b9050919050565b600081519050919050565b600082825260208201905092915050565b60006135dc826135b5565b6135e681856135c0565b93506135f68185602086016121c7565b6135ff81611ff9565b840191505092915050565b600060a08201905061361f6000830188612763565b61362c6020830187612763565b818103604083015261363e81866126e3565b9050818103606083015261365281856126e3565b9050818103608083015261366681846135d1565b90509695505050505050565b60008151905061368181611f60565b92915050565b60006020828403121561369d5761369c611e2c565b5b60006136ab84828501613672565b91505092915050565b60008160e01c9050919050565b600060033d11156136e05760046000803e6136dd6000516136b4565b90505b90565b600060443d10156136f357613776565b6136fb611e22565b60043d036004823e80513d602482011167ffffffffffffffff82111715613723575050613776565b808201805167ffffffffffffffff8111156137415750505050613776565b80602083010160043d03850181111561375e575050505050613776565b61376d82602001850186612039565b82955050505050505b90565b7f455243313135353a207472616e7366657220746f206e6f6e2d4552433131353560008201527f526563656976657220696d706c656d656e746572000000000000000000000000602082015250565b60006137d56034836121b6565b91506137e082613779565b604082019050919050565b60006020820190508181036000830152613804816137c8565b9050919050565b7f455243313135353a204552433131353552656365697665722072656a6563746560008201527f6420746f6b656e73000000000000000000000000000000000000000000000000602082015250565b60006138676028836121b6565b91506138728261380b565b604082019050919050565b600060208201905081810360008301526138968161385a565b9050919050565b600060a0820190506138b26000830188612763565b6138bf6020830187612763565b6138cc6040830186611f0a565b6138d96060830185611f0a565b81810360808301526138eb81846135d1565b9050969550505050505056fea2646970667358221220c46e39f3476cb2c221f95764df27cdb5de666d565960c01671de8170bfe4cb9464736f6c6343000809003368747470733a2f2f697066732e696f2f697066732f516d59615473797854446e724734746f6338373231773632724c345a424b585154476a396339527064726e746f752f707572706c652d7370726f75742e6a736f6e68747470733a2f2f697066732e696f2f697066732f516d59615473797854446e724734746f6338373231773632724c345a424b585154476a396339527064726e746f752f736565642e6a736f6e",
  "linkReferences": {},
  "deployedLinkReferences": {}
}